{
  "_format": "hh-sol-artifact-1",
  "contractName": "GiftContractV2",
  "sourceName": "contracts/drops/GiftContractV2.sol",
  "abi": [
    {
      "inputs": [],
      "stateMutability": "nonpayable",
      "type": "constructor"
    },
    {
      "anonymous": false,
      "inputs": [
        {
          "indexed": true,
          "internalType": "address",
          "name": "owner",
          "type": "address"
        },
        {
          "indexed": true,
          "internalType": "uint256",
          "name": "txIndex",
          "type": "uint256"
        }
      ],
      "name": "Confirm",
      "type": "event"
    },
    {
      "anonymous": false,
      "inputs": [
        {
          "indexed": true,
          "internalType": "address",
          "name": "owner",
          "type": "address"
        },
        {
          "indexed": true,
          "internalType": "uint256",
          "name": "txIndex",
          "type": "uint256"
        }
      ],
      "name": "ConfirmAndExecute",
      "type": "event"
    },
    {
      "anonymous": false,
      "inputs": [
        {
          "indexed": true,
          "internalType": "address",
          "name": "owner",
          "type": "address"
        },
        {
          "indexed": true,
          "internalType": "uint256",
          "name": "txIndex",
          "type": "uint256"
        }
      ],
      "name": "Execute",
      "type": "event"
    },
    {
      "anonymous": false,
      "inputs": [
        {
          "indexed": true,
          "internalType": "address",
          "name": "",
          "type": "address"
        },
        {
          "indexed": false,
          "internalType": "uint8",
          "name": "",
          "type": "uint8"
        },
        {
          "indexed": false,
          "internalType": "uint256",
          "name": "",
          "type": "uint256"
        }
      ],
      "name": "Gift",
      "type": "event"
    },
    {
      "anonymous": false,
      "inputs": [
        {
          "indexed": true,
          "internalType": "address",
          "name": "",
          "type": "address"
        },
        {
          "indexed": false,
          "internalType": "uint256[]",
          "name": "",
          "type": "uint256[]"
        }
      ],
      "name": "GiftEx",
      "type": "event"
    },
    {
      "anonymous": false,
      "inputs": [
        {
          "indexed": true,
          "internalType": "address[]",
          "name": "",
          "type": "address[]"
        },
        {
          "indexed": false,
          "internalType": "uint256[]",
          "name": "",
          "type": "uint256[]"
        }
      ],
      "name": "GiftToAll",
      "type": "event"
    },
    {
      "anonymous": false,
      "inputs": [
        {
          "indexed": true,
          "internalType": "address",
          "name": "owner",
          "type": "address"
        },
        {
          "indexed": true,
          "internalType": "uint256",
          "name": "txIndex",
          "type": "uint256"
        }
      ],
      "name": "Revoke",
      "type": "event"
    },
    {
      "anonymous": false,
      "inputs": [
        {
          "indexed": true,
          "internalType": "bytes32",
          "name": "role",
          "type": "bytes32"
        },
        {
          "indexed": true,
          "internalType": "bytes32",
          "name": "previousAdminRole",
          "type": "bytes32"
        },
        {
          "indexed": true,
          "internalType": "bytes32",
          "name": "newAdminRole",
          "type": "bytes32"
        }
      ],
      "name": "RoleAdminChanged",
      "type": "event"
    },
    {
      "anonymous": false,
      "inputs": [
        {
          "indexed": true,
          "internalType": "bytes32",
          "name": "role",
          "type": "bytes32"
        },
        {
          "indexed": true,
          "internalType": "address",
          "name": "account",
          "type": "address"
        },
        {
          "indexed": true,
          "internalType": "address",
          "name": "sender",
          "type": "address"
        }
      ],
      "name": "RoleGranted",
      "type": "event"
    },
    {
      "anonymous": false,
      "inputs": [
        {
          "indexed": true,
          "internalType": "bytes32",
          "name": "role",
          "type": "bytes32"
        },
        {
          "indexed": true,
          "internalType": "address",
          "name": "account",
          "type": "address"
        },
        {
          "indexed": true,
          "internalType": "address",
          "name": "sender",
          "type": "address"
        }
      ],
      "name": "RoleRevoked",
      "type": "event"
    },
    {
      "anonymous": false,
      "inputs": [
        {
          "indexed": true,
          "internalType": "address",
          "name": "owner",
          "type": "address"
        },
        {
          "indexed": true,
          "internalType": "uint256",
          "name": "txIndex",
          "type": "uint256"
        },
        {
          "indexed": true,
          "internalType": "address",
          "name": "to",
          "type": "address"
        },
        {
          "indexed": false,
          "internalType": "uint8",
          "name": "tierIndex",
          "type": "uint8"
        },
        {
          "indexed": false,
          "internalType": "uint256",
          "name": "tokenId",
          "type": "uint256"
        },
        {
          "indexed": false,
          "internalType": "bytes",
          "name": "data",
          "type": "bytes"
        }
      ],
      "name": "Submit",
      "type": "event"
    },
    {
      "anonymous": false,
      "inputs": [
        {
          "indexed": true,
          "internalType": "address",
          "name": "owner",
          "type": "address"
        },
        {
          "indexed": true,
          "internalType": "uint256",
          "name": "txIndex",
          "type": "uint256"
        },
        {
          "indexed": true,
          "internalType": "address",
          "name": "to",
          "type": "address"
        },
        {
          "indexed": false,
          "internalType": "uint8",
          "name": "tierIndex",
          "type": "uint8"
        },
        {
          "indexed": false,
          "internalType": "uint256",
          "name": "tokenId",
          "type": "uint256"
        },
        {
          "indexed": false,
          "internalType": "bytes",
          "name": "data",
          "type": "bytes"
        }
      ],
      "name": "SubmitAndConfirm",
      "type": "event"
    },
    {
      "anonymous": false,
      "inputs": [
        {
          "indexed": true,
          "internalType": "address",
          "name": "operator",
          "type": "address"
        },
        {
          "indexed": false,
          "internalType": "uint8",
          "name": "tierIndex",
          "type": "uint8"
        },
        {
          "indexed": false,
          "internalType": "uint256",
          "name": "limit",
          "type": "uint256"
        }
      ],
      "name": "UpdateGiftLimit",
      "type": "event"
    },
    {
      "anonymous": false,
      "inputs": [
        {
          "indexed": false,
          "internalType": "address",
          "name": "operator",
          "type": "address"
        },
        {
          "indexed": false,
          "internalType": "uint16[]",
          "name": "reserves",
          "type": "uint16[]"
        }
      ],
      "name": "UpdateGiftReserves",
      "type": "event"
    },
    {
      "inputs": [],
      "name": "DEFAULT_ADMIN_ROLE",
      "outputs": [
        {
          "internalType": "bytes32",
          "name": "",
          "type": "bytes32"
        }
      ],
      "stateMutability": "view",
      "type": "function"
    },
    {
      "inputs": [],
      "name": "MINTER_ROLE",
      "outputs": [
        {
          "internalType": "bytes32",
          "name": "",
          "type": "bytes32"
        }
      ],
      "stateMutability": "view",
      "type": "function"
    },
    {
      "inputs": [],
      "name": "OWNER_ROLE",
      "outputs": [
        {
          "internalType": "bytes32",
          "name": "",
          "type": "bytes32"
        }
      ],
      "stateMutability": "view",
      "type": "function"
    },
    {
      "inputs": [
        {
          "internalType": "address",
          "name": "owner",
          "type": "address"
        },
        {
          "internalType": "uint8",
          "name": "tierIndex",
          "type": "uint8"
        }
      ],
      "name": "balanceOf",
      "outputs": [
        {
          "internalType": "uint256",
          "name": "",
          "type": "uint256"
        }
      ],
      "stateMutability": "view",
      "type": "function"
    },
    {
      "inputs": [
        {
          "internalType": "uint256",
          "name": "_txIndex",
          "type": "uint256"
        }
      ],
      "name": "confirm",
      "outputs": [],
      "stateMutability": "nonpayable",
      "type": "function"
    },
    {
      "inputs": [
        {
          "internalType": "uint256",
          "name": "_txIndex",
          "type": "uint256"
        }
      ],
      "name": "confirmAndExecute",
      "outputs": [],
      "stateMutability": "nonpayable",
      "type": "function"
    },
    {
      "inputs": [],
      "name": "confirmsRequired",
      "outputs": [
        {
          "internalType": "uint256",
          "name": "",
          "type": "uint256"
        }
      ],
      "stateMutability": "view",
      "type": "function"
    },
    {
      "inputs": [
        {
          "internalType": "uint256",
          "name": "_txIndex",
          "type": "uint256"
        }
      ],
      "name": "execute",
      "outputs": [],
      "stateMutability": "nonpayable",
      "type": "function"
    },
    {
      "inputs": [
        {
          "internalType": "uint8",
          "name": "_tierIndex",
          "type": "uint8"
        }
      ],
      "name": "getActiveTokenIds",
      "outputs": [
        {
          "internalType": "uint256[]",
          "name": "",
          "type": "uint256[]"
        }
      ],
      "stateMutability": "view",
      "type": "function"
    },
    {
      "inputs": [
        {
          "internalType": "uint8",
          "name": "_tierIndex",
          "type": "uint8"
        }
      ],
      "name": "getActiveTxnCount",
      "outputs": [
        {
          "internalType": "uint256",
          "name": "",
          "type": "uint256"
        }
      ],
      "stateMutability": "view",
      "type": "function"
    },
    {
      "inputs": [
        {
          "internalType": "uint8",
          "name": "_tierIndex",
          "type": "uint8"
        }
      ],
      "name": "getGiftedList",
      "outputs": [
        {
          "internalType": "uint256[]",
          "name": "",
          "type": "uint256[]"
        }
      ],
      "stateMutability": "view",
      "type": "function"
    },
    {
      "inputs": [
        {
          "internalType": "bytes32",
          "name": "role",
          "type": "bytes32"
        }
      ],
      "name": "getRoleAdmin",
      "outputs": [
        {
          "internalType": "bytes32",
          "name": "",
          "type": "bytes32"
        }
      ],
      "stateMutability": "view",
      "type": "function"
    },
    {
      "inputs": [
        {
          "internalType": "uint256",
          "name": "_txIndex",
          "type": "uint256"
        }
      ],
      "name": "getTransaction",
      "outputs": [
        {
          "internalType": "address",
          "name": "to",
          "type": "address"
        },
        {
          "internalType": "uint8",
          "name": "tierIndex",
          "type": "uint8"
        },
        {
          "internalType": "uint256",
          "name": "tokenId",
          "type": "uint256"
        },
        {
          "internalType": "bytes",
          "name": "data",
          "type": "bytes"
        },
        {
          "internalType": "bool",
          "name": "executed",
          "type": "bool"
        },
        {
          "internalType": "bool",
          "name": "reverted",
          "type": "bool"
        },
        {
          "internalType": "uint256",
          "name": "numConfirmations",
          "type": "uint256"
        }
      ],
      "stateMutability": "view",
      "type": "function"
    },
    {
      "inputs": [],
      "name": "getTransactionCount",
      "outputs": [
        {
          "internalType": "uint256",
          "name": "",
          "type": "uint256"
        }
      ],
      "stateMutability": "view",
      "type": "function"
    },
    {
      "inputs": [
        {
          "internalType": "uint8",
          "name": "",
          "type": "uint8"
        }
      ],
      "name": "giftLimit",
      "outputs": [
        {
          "internalType": "uint16",
          "name": "",
          "type": "uint16"
        }
      ],
      "stateMutability": "view",
      "type": "function"
    },
    {
      "inputs": [
        {
          "internalType": "address",
          "name": "",
          "type": "address"
        },
        {
          "internalType": "uint8",
          "name": "",
          "type": "uint8"
        }
      ],
      "name": "giftList",
      "outputs": [
        {
          "internalType": "uint256",
          "name": "",
          "type": "uint256"
        }
      ],
      "stateMutability": "view",
      "type": "function"
    },
    {
      "inputs": [
        {
          "internalType": "uint8",
          "name": "",
          "type": "uint8"
        }
      ],
      "name": "giftReserves",
      "outputs": [
        {
          "internalType": "uint16",
          "name": "",
          "type": "uint16"
        }
      ],
      "stateMutability": "view",
      "type": "function"
    },
    {
      "inputs": [
        {
          "internalType": "address",
          "name": "",
          "type": "address"
        },
        {
          "internalType": "uint8",
          "name": "",
          "type": "uint8"
        }
      ],
      "name": "giftSubmitList",
      "outputs": [
        {
          "internalType": "uint256",
          "name": "",
          "type": "uint256"
        }
      ],
      "stateMutability": "view",
      "type": "function"
    },
    {
      "inputs": [
        {
          "internalType": "bytes32",
          "name": "role",
          "type": "bytes32"
        },
        {
          "internalType": "address",
          "name": "account",
          "type": "address"
        }
      ],
      "name": "grantRole",
      "outputs": [],
      "stateMutability": "nonpayable",
      "type": "function"
    },
    {
      "inputs": [
        {
          "internalType": "bytes32",
          "name": "role",
          "type": "bytes32"
        },
        {
          "internalType": "address",
          "name": "account",
          "type": "address"
        }
      ],
      "name": "hasRole",
      "outputs": [
        {
          "internalType": "bool",
          "name": "",
          "type": "bool"
        }
      ],
      "stateMutability": "view",
      "type": "function"
    },
    {
      "inputs": [
        {
          "internalType": "address",
          "name": "_minionverseToken",
          "type": "address"
        },
        {
          "internalType": "address",
          "name": "_roosterwarsToken",
          "type": "address"
        },
        {
          "internalType": "address",
          "name": "_minionversePool",
          "type": "address"
        },
        {
          "internalType": "address",
          "name": "_roosterwarsPool",
          "type": "address"
        }
      ],
      "name": "initialize",
      "outputs": [],
      "stateMutability": "nonpayable",
      "type": "function"
    },
    {
      "inputs": [
        {
          "internalType": "uint256",
          "name": "",
          "type": "uint256"
        },
        {
          "internalType": "address",
          "name": "",
          "type": "address"
        }
      ],
      "name": "isConfirmed",
      "outputs": [
        {
          "internalType": "bool",
          "name": "",
          "type": "bool"
        }
      ],
      "stateMutability": "view",
      "type": "function"
    },
    {
      "inputs": [
        {
          "internalType": "uint8",
          "name": "_tierIndex",
          "type": "uint8"
        },
        {
          "internalType": "uint256",
          "name": "_tokenId",
          "type": "uint256"
        }
      ],
      "name": "isTokenSubmitted",
      "outputs": [
        {
          "internalType": "bool",
          "name": "",
          "type": "bool"
        }
      ],
      "stateMutability": "view",
      "type": "function"
    },
    {
      "inputs": [],
      "name": "minionversePool",
      "outputs": [
        {
          "internalType": "address",
          "name": "",
          "type": "address"
        }
      ],
      "stateMutability": "view",
      "type": "function"
    },
    {
      "inputs": [],
      "name": "minionverseToken",
      "outputs": [
        {
          "internalType": "address",
          "name": "",
          "type": "address"
        }
      ],
      "stateMutability": "view",
      "type": "function"
    },
    {
      "inputs": [
        {
          "internalType": "bytes32",
          "name": "role",
          "type": "bytes32"
        },
        {
          "internalType": "address",
          "name": "account",
          "type": "address"
        }
      ],
      "name": "renounceRole",
      "outputs": [],
      "stateMutability": "nonpayable",
      "type": "function"
    },
    {
      "inputs": [
        {
          "internalType": "uint256",
          "name": "_txIndex",
          "type": "uint256"
        }
      ],
      "name": "revoke",
      "outputs": [],
      "stateMutability": "nonpayable",
      "type": "function"
    },
    {
      "inputs": [
        {
          "internalType": "bytes32",
          "name": "role",
          "type": "bytes32"
        },
        {
          "internalType": "address",
          "name": "account",
          "type": "address"
        }
      ],
      "name": "revokeRole",
      "outputs": [],
      "stateMutability": "nonpayable",
      "type": "function"
    },
    {
      "inputs": [],
      "name": "roosterwarsPool",
      "outputs": [
        {
          "internalType": "address",
          "name": "",
          "type": "address"
        }
      ],
      "stateMutability": "view",
      "type": "function"
    },
    {
      "inputs": [],
      "name": "roosterwarsToken",
      "outputs": [
        {
          "internalType": "address",
          "name": "",
          "type": "address"
        }
      ],
      "stateMutability": "view",
      "type": "function"
    },
    {
      "inputs": [
        {
          "internalType": "uint8",
          "name": "tierIndex",
          "type": "uint8"
        },
        {
          "internalType": "uint8",
          "name": "limit",
          "type": "uint8"
        }
      ],
      "name": "setGiftLimit",
      "outputs": [],
      "stateMutability": "nonpayable",
      "type": "function"
    },
    {
      "inputs": [
        {
          "internalType": "uint16[]",
          "name": "reserves",
          "type": "uint16[]"
        }
      ],
      "name": "setGiftReserve",
      "outputs": [],
      "stateMutability": "nonpayable",
      "type": "function"
    },
    {
      "inputs": [
        {
          "internalType": "uint256",
          "name": "number",
          "type": "uint256"
        }
      ],
      "name": "setNumConfirms",
      "outputs": [],
      "stateMutability": "nonpayable",
      "type": "function"
    },
    {
      "inputs": [
        {
          "internalType": "address",
          "name": "_minionverse",
          "type": "address"
        },
        {
          "internalType": "address",
          "name": "_roosterwars",
          "type": "address"
        }
      ],
      "name": "setupNFT",
      "outputs": [],
      "stateMutability": "nonpayable",
      "type": "function"
    },
    {
      "inputs": [
        {
          "internalType": "address",
          "name": "_minionverse",
          "type": "address"
        },
        {
          "internalType": "address",
          "name": "_roosterwars",
          "type": "address"
        }
      ],
      "name": "setupTreasury",
      "outputs": [],
      "stateMutability": "nonpayable",
      "type": "function"
    },
    {
      "inputs": [
        {
          "internalType": "address",
          "name": "_to",
          "type": "address"
        },
        {
          "internalType": "uint8",
          "name": "_tierIndex",
          "type": "uint8"
        },
        {
          "internalType": "uint256",
          "name": "_tokenId",
          "type": "uint256"
        },
        {
          "internalType": "bytes",
          "name": "_data",
          "type": "bytes"
        }
      ],
      "name": "submit",
      "outputs": [],
      "stateMutability": "nonpayable",
      "type": "function"
    },
    {
      "inputs": [
        {
          "internalType": "address",
          "name": "_to",
          "type": "address"
        },
        {
          "internalType": "uint8",
          "name": "_tierIndex",
          "type": "uint8"
        },
        {
          "internalType": "uint256",
          "name": "_tokenId",
          "type": "uint256"
        },
        {
          "internalType": "bytes",
          "name": "_data",
          "type": "bytes"
        }
      ],
      "name": "submitAndConfirm",
      "outputs": [],
      "stateMutability": "nonpayable",
      "type": "function"
    },
    {
      "inputs": [
        {
          "internalType": "bytes4",
          "name": "interfaceId",
          "type": "bytes4"
        }
      ],
      "name": "supportsInterface",
      "outputs": [
        {
          "internalType": "bool",
          "name": "",
          "type": "bool"
        }
      ],
      "stateMutability": "view",
      "type": "function"
    },
    {
      "inputs": [
        {
          "internalType": "uint8",
          "name": "tierIndex",
          "type": "uint8"
        }
      ],
      "name": "totalSupply",
      "outputs": [
        {
          "internalType": "uint256",
          "name": "",
          "type": "uint256"
        }
      ],
      "stateMutability": "view",
      "type": "function"
    },
    {
      "inputs": [
        {
          "internalType": "uint256",
          "name": "",
          "type": "uint256"
        }
      ],
      "name": "txns",
      "outputs": [
        {
          "internalType": "uint256",
          "name": "tokenId",
          "type": "uint256"
        },
        {
          "internalType": "uint256",
          "name": "confirms",
          "type": "uint256"
        },
        {
          "internalType": "bytes",
          "name": "data",
          "type": "bytes"
        },
        {
          "internalType": "address",
          "name": "to",
          "type": "address"
        },
        {
          "internalType": "uint8",
          "name": "tierIndex",
          "type": "uint8"
        },
        {
          "internalType": "bool",
          "name": "executed",
          "type": "bool"
        },
        {
          "internalType": "bool",
          "name": "reverted",
          "type": "bool"
        }
      ],
      "stateMutability": "view",
      "type": "function"
    }
  ],
  "bytecode": "0x60806040523480156200001157600080fd5b506200001f6000336200007d565b6200004b7f9f2df0fed2c77648de5860a4cc508cd0818c85b8b8a1ab4ceeef8d981c8956a6336200007d565b620000777fb19546dff01e856fb3f010c267a7b1c60363cf8a4664e21cc89c26224620214e336200007d565b6200011e565b6000828152602081815260408083206001600160a01b038516845290915290205460ff166200011a576000828152602081815260408083206001600160a01b03851684529091529020805460ff19166001179055620000d93390565b6001600160a01b0316816001600160a01b0316837f2f8788117e7eff1d82e926ec794901d17c78024a50270940304540a733656f0d60405160405180910390a45b5050565b6131ee806200012e6000396000f3fe608060405234801561001057600080fd5b50600436106102485760003560e01c80636e0b572b1161013b578063d8ab14b0116100b8578063e8d866c41161007c578063e8d866c4146105fc578063f7fb459a1461060f578063f8c8765e14610622578063fba522c614610635578063fe0d94c11461064857600080fd5b8063d8ab14b014610569578063d9cae1561461058d578063daa10560146105b8578063df73485f146105de578063e58378bb146105e757600080fd5b8063ba0179b5116100ff578063ba0179b5146104f0578063c849cad614610503578063cb78d9c614610516578063d539139314610541578063d547741f1461055657600080fd5b80636e0b572b1461046457806380f59a651461047757806391d14854146104a5578063937817d4146104b8578063a217fddf146104e857600080fd5b80632f67ee58116101c9578063496d9f441161018d578063496d9f44146103f55780635dcab34b14610418578063674120451461042b5780636b56677c1461043e5780636c94cfdf1461045157600080fd5b80632f67ee581461034257806332149be21461037257806333ea3dc8146103a957806336568abe146103cf5780633fe7df0c146103e257600080fd5b80631dc7bcf3116102105780631dc7bcf3146102d157806320c5429b146102f1578063248a9ca3146103045780632e7700f0146103275780632f2ff15d1461032f57600080fd5b806301ffc9a71461024d578063059ea553146102755780630d12aa00146102965780630dcae148146102ab578063142ca501146102be575b600080fd5b61026061025b366004612cfe565b61065b565b60405190151581526020015b60405180910390f35b610288610283366004612d26565b610692565b60405190815260200161026c565b6102a96102a4366004612aa4565b610887565b005b6102a96102b9366004612aa4565b61098f565b6102a96102cc366004612b52565b610a98565b6102e46102df366004612d26565b610b6d565b60405161026c9190612ece565b6102a96102ff366004612cc4565b610bd3565b610288610312366004612cc4565b60009081526020819052604090206001015490565b600f54610288565b6102a961033d366004612cdc565b610d53565b60015461035a9061010090046001600160a01b031681565b6040516001600160a01b03909116815260200161026c565b610396610380366004612d26565b60066020526000908152604090205461ffff1681565b60405161ffff909116815260200161026c565b6103bc6103b7366004612cc4565b610d7d565b60405161026c9796959493929190612e7f565b6102a96103dd366004612cdc565b610ea4565b6102a96103f0366004612d69565b610f22565b610288610403366004612d26565b60ff1660009081526007602052604090205490565b6102a9610426366004612c0a565b610fe9565b610288610439366004612b29565b6110f7565b60025461035a906001600160a01b031681565b60045461035a906001600160a01b031681565b6102a9610472366004612cc4565b611172565b610260610485366004612cdc565b600d60209081526000928352604080842090915290825290205460ff1681565b6102606104b3366004612cdc565b6111dc565b6102606104c6366004612d40565b60ff918216600090815260096020908152604080832093835292905220541690565b610288600081565b6102a96104fe366004612cc4565b611205565b6102a9610511366004612cc4565b6113e9565b610288610524366004612b29565b600c60209081526000928352604080842090915290825290205481565b61028860008051602061319983398151915281565b6102a9610564366004612cdc565b61164a565b610396610577366004612d26565b60056020526000908152604090205461ffff1681565b61028861059b366004612b29565b600b60209081526000928352604080842090915290825290205481565b6105cb6105c6366004612cc4565b61166f565b60405161026c9796959493929190612fcd565b610288600e5481565b61028860008051602061317983398151915281565b60035461035a906001600160a01b031681565b6102a961061d366004612b52565b611761565b6102a9610630366004612ad6565b61181d565b6102e4610643366004612d26565b6119e5565b6102a9610656366004612cc4565b611c96565b60006001600160e01b03198216637965db0b60e01b148061068c57506301ffc9a760e01b6001600160e01b03198316145b92915050565b600080600f805480602002602001604051908101604052809291908181526020016000905b828210156107df57838290600052602060002090600402016040518060e001604052908160008201548152602001600182015481526020016002820180546106fe906130f6565b80601f016020809104026020016040519081016040528092919081815260200182805461072a906130f6565b80156107775780601f1061074c57610100808354040283529160200191610777565b820191906000526020600020905b81548152906001019060200180831161075a57829003601f168201915b5050509183525050600391909101546001600160a01b03811660208084019190915260ff600160a01b830481166040850152600160a81b8304811615156060850152600160b01b909204909116151560809092019190915290825260019290920191016106b7565b5050505090506000805b825181101561087f578460ff1683828151811061081657634e487b7160e01b600052603260045260246000fd5b60200260200101516080015160ff161461082f5761086d565b82818151811061084f57634e487b7160e01b600052603260045260246000fd5b602002602001015160c0015161086d578161086981613131565b9250505b8061087781613131565b9150506107e9565b509392505050565b336108936000826111dc565b806108b157506108b1600080516020613199833981519152826111dc565b806108cf57506108cf600080516020613179833981519152826111dc565b6108f45760405162461bcd60e51b81526004016108eb90612faa565b60405180910390fd5b6001600160a01b0383161580159061091457506001600160a01b03821615155b6109605760405162461bcd60e51b815260206004820152601c60248201527f474946545f53455455505f504f4f4c5f5a45524f5f414444524553530000000060448201526064016108eb565b50600280546001600160a01b039384166001600160a01b03199182161790915560048054929093169116179055565b3361099b6000826111dc565b806109b957506109b9600080516020613199833981519152826111dc565b806109d757506109d7600080516020613179833981519152826111dc565b6109f35760405162461bcd60e51b81526004016108eb90612faa565b6001600160a01b03831615801590610a1357506001600160a01b03821615155b610a5f5760405162461bcd60e51b815260206004820152601d60248201527f474946545f53455455505f544f4b454e5f5a45524f5f4144445245535300000060448201526064016108eb565b5060018054610100600160a81b0319166101006001600160a01b0394851602179055600380546001600160a01b03191691909216179055565b33610aa46000826111dc565b80610ac25750610ac2600080516020613199833981519152826111dc565b80610ae05750610ae0600080516020613179833981519152826111dc565b610afc5760405162461bcd60e51b81526004016108eb90612faa565b6000610b0a86868686611e16565b9050610b1581612134565b856001600160a01b031681336001600160a01b03167f4d0fb9028bd0e78ae2afbd2e1af713dc6a880dbe5766136adb67e39376f3901f888888604051610b5d93929190613020565b60405180910390a4505050505050565b60ff81166000908152600a6020908152604091829020805483518184028101840190945280845260609392830182828015610bc757602002820191906000526020600020905b815481526020019060010190808311610bb3575b50505050509050919050565b33610bdf6000826111dc565b80610bfd5750610bfd600080516020613199833981519152826111dc565b80610c1b5750610c1b600080516020613179833981519152826111dc565b610c375760405162461bcd60e51b81526004016108eb90612faa565b600f5482908110610c5a5760405162461bcd60e51b81526004016108eb90612f25565b82600f8181548110610c7c57634e487b7160e01b600052603260045260246000fd5b906000526020600020906004020160030160159054906101000a900460ff1615610cb85760405162461bcd60e51b81526004016108eb90612f7d565b83600f8181548110610cda57634e487b7160e01b600052603260045260246000fd5b906000526020600020906004020160030160169054906101000a900460ff1615610d165760405162461bcd60e51b81526004016108eb90612f50565b610d1f856121a8565b604051859033907fec9ab91322523c899ede7830ec9bfc992b5981cdcc27b91162fb23de5791117b90600090a35050505050565b600082815260208190526040902060010154610d6e816122f6565b610d788383612303565b505050565b60008060006060600080600080600f8981548110610dab57634e487b7160e01b600052603260045260246000fd5b60009182526020909120600360049092020190810154815460018301546002840180549495506001600160a01b0384169460ff600160a01b86048116959293600160a81b8404821693600160b01b9004909116918490610e0a906130f6565b80601f0160208091040260200160405190810160405280929190818152602001828054610e36906130f6565b8015610e835780601f10610e5857610100808354040283529160200191610e83565b820191906000526020600020905b815481529060010190602001808311610e6657829003601f168201915b50505050509350975097509750975097509750975050919395979092949650565b6001600160a01b0381163314610f145760405162461bcd60e51b815260206004820152602f60248201527f416363657373436f6e74726f6c3a2063616e206f6e6c792072656e6f756e636560448201526e103937b632b9903337b91039b2b63360891b60648201526084016108eb565b610f1e8282612387565b5050565b33610f2e6000826111dc565b80610f4c5750610f4c600080516020613199833981519152826111dc565b80610f6a5750610f6a600080516020613179833981519152826111dc565b610f865760405162461bcd60e51b81526004016108eb90612faa565b60ff838116600081815260056020908152604091829020805461ffff19169487169485179055815192835282019290925233917f721ca23739e925c0ca1381513fca78ab3c9176698637827651ddaa4bebb21670910160405180910390a2505050565b33610ff56000826111dc565b806110135750611013600080516020613199833981519152826111dc565b806110315750611031600080516020613179833981519152826111dc565b61104d5760405162461bcd60e51b81526004016108eb90612faa565b60005b82518160ff1610156110b957828160ff168151811061107f57634e487b7160e01b600052603260045260246000fd5b60209081029190910181015160ff8316600090815260069092526040909120805461ffff191661ffff909216919091179055600101611050565b507f32b8f70dcb041cfeb6524e5eb8aa93b6ca69e2d7acdf3310037623672650a3f133836040516110eb929190612e25565b60405180910390a15050565b60006001600160a01b0383166111445760405162461bcd60e51b81526020600482015260126024820152714f574e45525f5a45524f5f4144445245535360701b60448201526064016108eb565b506001600160a01b0382166000908152600b6020908152604080832060ff8516845290915290205492915050565b3361117e6000826111dc565b8061119c575061119c600080516020613199833981519152826111dc565b806111ba57506111ba600080516020613179833981519152826111dc565b6111d65760405162461bcd60e51b81526004016108eb90612faa565b50600e55565b6000918252602082815260408084206001600160a01b0393909316845291905290205460ff1690565b336112116000826111dc565b8061122f575061122f600080516020613199833981519152826111dc565b8061124d575061124d600080516020613179833981519152826111dc565b6112695760405162461bcd60e51b81526004016108eb90612faa565b600f548290811061128c5760405162461bcd60e51b81526004016108eb90612f25565b82600f81815481106112ae57634e487b7160e01b600052603260045260246000fd5b906000526020600020906004020160030160159054906101000a900460ff16156112ea5760405162461bcd60e51b81526004016108eb90612f7d565b6000848152600d60209081526040808320338452909152902054849060ff161561134d5760405162461bcd60e51b81526020600482015260146024820152731d1e08185b1c9958591e4818dbdb999a5c9b595960621b60448201526064016108eb565b84600f818154811061136f57634e487b7160e01b600052603260045260246000fd5b906000526020600020906004020160030160169054906101000a900460ff16156113ab5760405162461bcd60e51b81526004016108eb90612f50565b6113b486612134565b604051869033907fbde73c39e691e6143456e01935275fd9f654dacca25911f03ab0d587644377eb90600090a3505050505050565b336113f56000826111dc565b806114135750611413600080516020613199833981519152826111dc565b806114315750611431600080516020613179833981519152826111dc565b61144d5760405162461bcd60e51b81526004016108eb90612faa565b600f54829081106114705760405162461bcd60e51b81526004016108eb90612f25565b6000838152600d60209081526040808320338452909152902054839060ff16156114d35760405162461bcd60e51b81526020600482015260146024820152731d1e08185b1c9958591e4818dbdb999a5c9b595960621b60448201526064016108eb565b83600f81815481106114f557634e487b7160e01b600052603260045260246000fd5b906000526020600020906004020160030160159054906101000a900460ff16156115315760405162461bcd60e51b81526004016108eb90612f7d565b84600f818154811061155357634e487b7160e01b600052603260045260246000fd5b906000526020600020906004020160030160169054906101000a900460ff161561158f5760405162461bcd60e51b81526004016108eb90612f50565b61159886612134565b6000600f87815481106115bb57634e487b7160e01b600052603260045260246000fd5b90600052602060002090600402019050600e54816001015410611613576115e1876123ec565b604051879033907f726cc2f9e89f99ad4bb86f9590d91d8794c993cc7cc4c3516709021aebee36d290600090a3611641565b604051879033907fbde73c39e691e6143456e01935275fd9f654dacca25911f03ab0d587644377eb90600090a35b50505050505050565b600082815260208190526040902060010154611665816122f6565b610d788383612387565b600f818154811061167f57600080fd5b90600052602060002090600402016000915090508060000154908060010154908060020180546116ae906130f6565b80601f01602080910402602001604051908101604052809291908181526020018280546116da906130f6565b80156117275780601f106116fc57610100808354040283529160200191611727565b820191906000526020600020905b81548152906001019060200180831161170a57829003601f168201915b505050600390930154919250506001600160a01b0381169060ff600160a01b8204811691600160a81b8104821691600160b01b9091041687565b3361176d6000826111dc565b8061178b575061178b600080516020613199833981519152826111dc565b806117a957506117a9600080516020613179833981519152826111dc565b6117c55760405162461bcd60e51b81526004016108eb90612faa565b600f546117d486868686611e16565b50856001600160a01b031681336001600160a01b03167fa8d1169d9717f8943f9a3f0860648bc561a493522d6809e9d71e0e7427ecc500888888604051610b5d93929190613020565b6000611828816122f6565b6001600160a01b0385161580159061184857506001600160a01b03841615155b6118945760405162461bcd60e51b815260206004820152601c60248201527f474946545f494e49545f544f4b454e5f5a45524f5f414444524553530000000060448201526064016108eb565b6001600160a01b038316158015906118b457506001600160a01b03821615155b6119005760405162461bcd60e51b815260206004820152601b60248201527f474946545f494e49545f504f4f4c5f5a45524f5f41444452455353000000000060448201526064016108eb565b60018054610100600160a81b0319166101006001600160a01b038881169190910291909117909155600380546001600160a01b0319908116878416178255600280548216878516179055600480549091169285169290921790915561196790600090610f22565b61197360016003610f22565b5050600660205250507f54cdd369e4e8a8515e52ca72ec816c2101831ad1f18bf44102ed171459c9b4f8805461ffff19908116604a1790915560016000527f3e5fec24aa4dc4e5aee2e025e51e1392c72a2500577559fae9665c6d52bd6a3180549091166101a9179055506002600e55565b60606000600f805480602002602001604051908101604052809291908181526020016000905b82821015611b3357838290600052602060002090600402016040518060e00160405290816000820154815260200160018201548152602001600282018054611a52906130f6565b80601f0160208091040260200160405190810160405280929190818152602001828054611a7e906130f6565b8015611acb5780601f10611aa057610100808354040283529160200191611acb565b820191906000526020600020905b815481529060010190602001808311611aae57829003601f168201915b5050509183525050600391909101546001600160a01b03811660208084019190915260ff600160a01b830481166040850152600160a81b8304811615156060850152600160b01b90920490911615156080909201919091529082526001929092019101611a0b565b5050505090506000611b4484610692565b90506000808267ffffffffffffffff811115611b7057634e487b7160e01b600052604160045260246000fd5b604051908082528060200260200182016040528015611b99578160200160208202803683370190505b50905060005b8451811015611c8c578660ff16858281518110611bcc57634e487b7160e01b600052603260045260246000fd5b60200260200101516080015160ff1614611be557611c7a565b848181518110611c0557634e487b7160e01b600052603260045260246000fd5b602002602001015160c00151611c7a57848181518110611c3557634e487b7160e01b600052603260045260246000fd5b602002602001015160000151828481518110611c6157634e487b7160e01b600052603260045260246000fd5b602090810291909101015282611c7681613131565b9350505b80611c8481613131565b915050611b9f565b5095945050505050565b33611ca26000826111dc565b80611cc05750611cc0600080516020613199833981519152826111dc565b80611cde5750611cde600080516020613179833981519152826111dc565b611cfa5760405162461bcd60e51b81526004016108eb90612faa565b600f5482908110611d1d5760405162461bcd60e51b81526004016108eb90612f25565b82600f8181548110611d3f57634e487b7160e01b600052603260045260246000fd5b906000526020600020906004020160030160159054906101000a900460ff1615611d7b5760405162461bcd60e51b81526004016108eb90612f7d565b83600f8181548110611d9d57634e487b7160e01b600052603260045260246000fd5b906000526020600020906004020160030160169054906101000a900460ff1615611dd95760405162461bcd60e51b81526004016108eb90612f50565b611de2856123ec565b604051859033907f892cd8f5b436bd5fb7dac1f11aafb73345d892ba3e9fe09cd94d95ba84928e7390600090a35050505050565b60ff808416600090815260096020908152604080832086845290915281205490911615611e7e5760405162461bcd60e51b8152602060048201526016602482015275474946545f5355424d49545445445f414c524541445960501b60448201526064016108eb565b60ff841660008181526009602090815260408083208784528252808320805460ff19166001179055600f54938352600882528083205460069092529091205461ffff16808210611f075760405162461bcd60e51b815260206004820152601460248201527311d2519517d49154d154959157d312535255115160621b60448201526064016108eb565b60ff87166000818152600560209081526040808320546001600160a01b038d168452600c83528184209484529390915290205461ffff90911611611f815760405162461bcd60e51b8152602060048201526011602482015270474946545f4558434545445f414c4c4f4360781b60448201526064016108eb565b6040805160e081018252878152600060208083018281529383018981526001600160a01b038d16606085015260ff8c16608085015260a0840183905260c08401839052600f80546001810182559352835160049093027f8d1108e10bcb7c27dddfc02ed9d693a074039d026cf4ea4240b40f7d581ac802810193845594517f8d1108e10bcb7c27dddfc02ed9d693a074039d026cf4ea4240b40f7d581ac8038601555180519394929361205b937f8d1108e10bcb7c27dddfc02ed9d693a074039d026cf4ea4240b40f7d581ac804019291909101906129de565b50606082015160039091018054608084015160a085015160c0909501511515600160b01b0260ff60b01b19951515600160a81b029590951661ffff60a81b1960ff928316600160a01b026001600160a81b03199094166001600160a01b039096169590951792909217939093161792909217909155871660009081526008602052604081208054916120ec83613131565b90915550506001600160a01b0388166000908152600c6020908152604080832060ff8b168452909152812080549161212383613131565b909155509298975050505050505050565b6000600f828154811061215757634e487b7160e01b600052603260045260246000fd5b90600052602060002090600402019050600181600101600082825461217c919061307c565b9091555050506000908152600d602090815260408083203384529091529020805460ff19166001179055565b6000600f82815481106121cb57634e487b7160e01b600052603260045260246000fd5b600091825260208083206003600490930201918201548254868552600d83526040808620338752909352919093205491935060ff600160a01b90930483169290911661224c5760405162461bcd60e51b815260206004820152601060248201526f1d1e081b9bdd0818dbdb999a5c9b595960821b60448201526064016108eb565b6001830180546000190181556000858152600d602090815260408083203384529091529020805460ff19169055546122f05760038301805460ff60b01b1916600160b01b17815560ff831660008181526009602090815260408083208684528252808320805460ff1916905583835260088252808320805460001990810190915594546001600160a01b03168352600c825280832093835292905220805490910190555b50505050565b6123008133612791565b50565b61230d82826111dc565b610f1e576000828152602081815260408083206001600160a01b03851684529091529020805460ff191660011790556123433390565b6001600160a01b0316816001600160a01b0316837f2f8788117e7eff1d82e926ec794901d17c78024a50270940304540a733656f0d60405160405180910390a45050565b61239182826111dc565b15610f1e576000828152602081815260408083206001600160a01b0385168085529252808320805460ff1916905551339285917ff6391f5c32d9c69d2a47ea670b442974b53935d1edc7fd64eb21e047a839171b9190a45050565b6000600f828154811061240f57634e487b7160e01b600052603260045260246000fd5b90600052602060002090600402016040518060e0016040529081600082015481526020016001820154815260200160028201805461244c906130f6565b80601f0160208091040260200160405190810160405280929190818152602001828054612478906130f6565b80156124c55780601f1061249a576101008083540402835291602001916124c5565b820191906000526020600020905b8154815290600101906020018083116124a857829003601f168201915b5050509183525050600391909101546001600160a01b03811660208084019190915260ff600160a01b830481166040850152600160a81b8304811615156060850152600160b01b909204909116151560809283015290820151600e549183015192935091101561256c5760405162461bcd60e51b815260206004820152601260248201527111d2519517d393d517d0d3d391925493515160721b60448201526064016108eb565b600060ff821615612588576003546001600160a01b031661259a565b60015461010090046001600160a01b03165b9050600060ff8316156125b8576004546001600160a01b03166125c5565b6002546001600160a01b03165b905060ff83166126475760608401518451604051632142170760e11b81526001600160a01b03848116600483015292831660248201526044810191909152908316906342842e0e90606401600060405180830381600087803b15801561262a57600080fd5b505af115801561263e573d6000803e3d6000fd5b505050506126bb565b60608401518451604051632142170760e11b81526001600160a01b03848116600483015292831660248201526044810191909152908316906342842e0e90606401600060405180830381600087803b1580156126a257600080fd5b505af11580156126b6573d6000803e3d6000fd5b505050505b6001600f86815481106126de57634e487b7160e01b600052603260045260246000fd5b600091825260208083206003600490930201919091018054931515600160a81b0260ff60a81b199094169390931790925560ff8516808252600a835260408083208851815460018101835591855285852090910155908252600790925290812080549161274a83613131565b909155505060608401516001600160a01b03166000908152600b6020908152604080832060ff87168452909152812080549161278583613131565b91905055505050505050565b61279b82826111dc565b610f1e576127b3816001600160a01b031660146127f5565b6127be8360206127f5565b6040516020016127cf929190612db0565b60408051601f198184030181529082905262461bcd60e51b82526108eb91600401612f12565b60606000612804836002613094565b61280f90600261307c565b67ffffffffffffffff81111561283557634e487b7160e01b600052604160045260246000fd5b6040519080825280601f01601f19166020018201604052801561285f576020820181803683370190505b509050600360fc1b8160008151811061288857634e487b7160e01b600052603260045260246000fd5b60200101906001600160f81b031916908160001a905350600f60fb1b816001815181106128c557634e487b7160e01b600052603260045260246000fd5b60200101906001600160f81b031916908160001a90535060006128e9846002613094565b6128f490600161307c565b90505b6001811115612988576f181899199a1a9b1b9c1cb0b131b232b360811b85600f166010811061293657634e487b7160e01b600052603260045260246000fd5b1a60f81b82828151811061295a57634e487b7160e01b600052603260045260246000fd5b60200101906001600160f81b031916908160001a90535060049490941c93612981816130df565b90506128f7565b5083156129d75760405162461bcd60e51b815260206004820181905260248201527f537472696e67733a20686578206c656e67746820696e73756666696369656e7460448201526064016108eb565b9392505050565b8280546129ea906130f6565b90600052602060002090601f016020900481019282612a0c5760008555612a52565b82601f10612a2557805160ff1916838001178555612a52565b82800160010185558215612a52579182015b82811115612a52578251825591602001919060010190612a37565b50612a5e929150612a62565b5090565b5b80821115612a5e5760008155600101612a63565b80356001600160a01b0381168114612a8e57600080fd5b919050565b803560ff81168114612a8e57600080fd5b60008060408385031215612ab6578182fd5b612abf83612a77565b9150612acd60208401612a77565b90509250929050565b60008060008060808587031215612aeb578182fd5b612af485612a77565b9350612b0260208601612a77565b9250612b1060408601612a77565b9150612b1e60608601612a77565b905092959194509250565b60008060408385031215612b3b578182fd5b612b4483612a77565b9150612acd60208401612a93565b60008060008060808587031215612b67578384fd5b612b7085612a77565b93506020612b7f818701612a93565b935060408601359250606086013567ffffffffffffffff80821115612ba2578384fd5b818801915088601f830112612bb5578384fd5b813581811115612bc757612bc7613162565b612bd9601f8201601f1916850161304b565b91508082528984828501011115612bee578485fd5b8084840185840137810190920192909252939692955090935050565b60006020808385031215612c1c578182fd5b823567ffffffffffffffff80821115612c33578384fd5b818501915085601f830112612c46578384fd5b813581811115612c5857612c58613162565b8060051b9150612c6984830161304b565b8181528481019084860184860187018a1015612c83578788fd5b8795505b83861015612cb7578035945061ffff85168514612ca2578788fd5b84835260019590950194918601918601612c87565b5098975050505050505050565b600060208284031215612cd5578081fd5b5035919050565b60008060408385031215612cee578182fd5b82359150612acd60208401612a77565b600060208284031215612d0f578081fd5b81356001600160e01b0319811681146129d7578182fd5b600060208284031215612d37578081fd5b6129d782612a93565b60008060408385031215612d52578182fd5b612d5b83612a93565b946020939093013593505050565b60008060408385031215612d7b578182fd5b612b4483612a93565b60008151808452612d9c8160208601602086016130b3565b601f01601f19169290920160200192915050565b7f416363657373436f6e74726f6c3a206163636f756e7420000000000000000000815260008351612de88160178501602088016130b3565b7001034b99036b4b9b9b4b733903937b6329607d1b6017918401918201528351612e198160288401602088016130b3565b01602801949350505050565b6001600160a01b038316815260406020808301829052835191830182905260009184820191906060850190845b81811015612e7257845161ffff1683529383019391830191600101612e52565b5090979650505050505050565b60018060a01b038816815260ff8716602082015285604082015260e060608201526000612eaf60e0830187612d84565b94151560808301525091151560a083015260c090910152949350505050565b6020808252825182820181905260009190848201906040850190845b81811015612f0657835183529284019291840191600101612eea565b50909695505050505050565b6020815260006129d76020830184612d84565b6020808252601190820152701d1e08191bd95cc81b9bdd08195e1a5cdd607a1b604082015260600190565b6020808252601390820152721d1e08185b1c9958591e481c995d995c9d1959606a1b604082015260600190565b6020808252601390820152721d1e08185b1c9958591e48195e1958dd5d1959606a1b604082015260600190565b6020808252600990820152682737ba1030b236b4b760b91b604082015260600190565b87815286602082015260e060408201526000612fec60e0830188612d84565b6001600160a01b039690961660608301525060ff93909316608084015290151560a0830152151560c0909101529392505050565b60ff841681528260208201526060604082015260006130426060830184612d84565b95945050505050565b604051601f8201601f1916810167ffffffffffffffff8111828210171561307457613074613162565b604052919050565b6000821982111561308f5761308f61314c565b500190565b60008160001904831182151516156130ae576130ae61314c565b500290565b60005b838110156130ce5781810151838201526020016130b6565b838111156122f05750506000910152565b6000816130ee576130ee61314c565b506000190190565b600181811c9082168061310a57607f821691505b6020821081141561312b57634e487b7160e01b600052602260045260246000fd5b50919050565b60006000198214156131455761314561314c565b5060010190565b634e487b7160e01b600052601160045260246000fd5b634e487b7160e01b600052604160045260246000fdfeb19546dff01e856fb3f010c267a7b1c60363cf8a4664e21cc89c26224620214e9f2df0fed2c77648de5860a4cc508cd0818c85b8b8a1ab4ceeef8d981c8956a6a26469706673582212201ce3fd648ad5716189cda187072193719b7929bdc530d65c779fffd1975477c064736f6c63430008040033",
  "linkReferences": {},
  "deployedLinkReferences": {}
}