{
  "_format": "hh-sol-artifact-1",
  "contractName": "SaleContract",
  "sourceName": "contracts/sales/SaleContract.sol",
  "abi": [
    {
      "inputs": [],
      "stateMutability": "nonpayable",
      "type": "constructor"
    },
    {
      "anonymous": false,
      "inputs": [
        {
          "indexed": true,
          "internalType": "address",
          "name": "buyer",
          "type": "address"
        },
        {
          "indexed": false,
          "internalType": "uint8",
          "name": "tierIndex",
          "type": "uint8"
        },
        {
          "indexed": false,
          "internalType": "uint256",
          "name": "quantity",
          "type": "uint256"
        }
      ],
      "name": "Buy",
      "type": "event"
    },
    {
      "anonymous": false,
      "inputs": [
        {
          "indexed": true,
          "internalType": "address",
          "name": "to",
          "type": "address"
        },
        {
          "indexed": false,
          "internalType": "uint8",
          "name": "tierIndex",
          "type": "uint8"
        },
        {
          "indexed": false,
          "internalType": "uint256",
          "name": "quantity",
          "type": "uint256"
        }
      ],
      "name": "Gift",
      "type": "event"
    },
    {
      "anonymous": false,
      "inputs": [
        {
          "indexed": true,
          "internalType": "bytes32",
          "name": "role",
          "type": "bytes32"
        },
        {
          "indexed": true,
          "internalType": "bytes32",
          "name": "previousAdminRole",
          "type": "bytes32"
        },
        {
          "indexed": true,
          "internalType": "bytes32",
          "name": "newAdminRole",
          "type": "bytes32"
        }
      ],
      "name": "RoleAdminChanged",
      "type": "event"
    },
    {
      "anonymous": false,
      "inputs": [
        {
          "indexed": true,
          "internalType": "bytes32",
          "name": "role",
          "type": "bytes32"
        },
        {
          "indexed": true,
          "internalType": "address",
          "name": "account",
          "type": "address"
        },
        {
          "indexed": true,
          "internalType": "address",
          "name": "sender",
          "type": "address"
        }
      ],
      "name": "RoleGranted",
      "type": "event"
    },
    {
      "anonymous": false,
      "inputs": [
        {
          "indexed": true,
          "internalType": "bytes32",
          "name": "role",
          "type": "bytes32"
        },
        {
          "indexed": true,
          "internalType": "address",
          "name": "account",
          "type": "address"
        },
        {
          "indexed": true,
          "internalType": "address",
          "name": "sender",
          "type": "address"
        }
      ],
      "name": "RoleRevoked",
      "type": "event"
    },
    {
      "anonymous": false,
      "inputs": [
        {
          "indexed": false,
          "internalType": "address",
          "name": "",
          "type": "address"
        },
        {
          "indexed": false,
          "internalType": "bool",
          "name": "",
          "type": "bool"
        }
      ],
      "name": "SetLock",
      "type": "event"
    },
    {
      "anonymous": false,
      "inputs": [
        {
          "indexed": true,
          "internalType": "address",
          "name": "operator",
          "type": "address"
        },
        {
          "indexed": false,
          "internalType": "uint8",
          "name": "tierIndex",
          "type": "uint8"
        },
        {
          "indexed": false,
          "internalType": "uint256",
          "name": "limit",
          "type": "uint256"
        }
      ],
      "name": "UpdateBuyLimit",
      "type": "event"
    },
    {
      "anonymous": false,
      "inputs": [
        {
          "indexed": true,
          "internalType": "address",
          "name": "operator",
          "type": "address"
        },
        {
          "indexed": false,
          "internalType": "uint8",
          "name": "tierIndex",
          "type": "uint8"
        },
        {
          "indexed": false,
          "internalType": "uint256",
          "name": "price",
          "type": "uint256"
        }
      ],
      "name": "UpdateDefaultPrice",
      "type": "event"
    },
    {
      "anonymous": false,
      "inputs": [
        {
          "indexed": true,
          "internalType": "address",
          "name": "operator",
          "type": "address"
        },
        {
          "indexed": false,
          "internalType": "uint8",
          "name": "tierIndex",
          "type": "uint8"
        },
        {
          "indexed": false,
          "internalType": "uint256",
          "name": "limit",
          "type": "uint256"
        }
      ],
      "name": "UpdateGiftLimit",
      "type": "event"
    },
    {
      "anonymous": false,
      "inputs": [
        {
          "indexed": true,
          "internalType": "address",
          "name": "operator",
          "type": "address"
        }
      ],
      "name": "Withdraw",
      "type": "event"
    },
    {
      "inputs": [],
      "name": "DEFAULT_ADMIN_ROLE",
      "outputs": [
        {
          "internalType": "bytes32",
          "name": "",
          "type": "bytes32"
        }
      ],
      "stateMutability": "view",
      "type": "function"
    },
    {
      "inputs": [],
      "name": "MINTER_ROLE",
      "outputs": [
        {
          "internalType": "bytes32",
          "name": "",
          "type": "bytes32"
        }
      ],
      "stateMutability": "view",
      "type": "function"
    },
    {
      "inputs": [],
      "name": "OWNER_ROLE",
      "outputs": [
        {
          "internalType": "bytes32",
          "name": "",
          "type": "bytes32"
        }
      ],
      "stateMutability": "view",
      "type": "function"
    },
    {
      "inputs": [
        {
          "internalType": "string",
          "name": "name",
          "type": "string"
        },
        {
          "internalType": "uint8",
          "name": "discount",
          "type": "uint8"
        },
        {
          "internalType": "uint256",
          "name": "startTimestamp",
          "type": "uint256"
        },
        {
          "internalType": "uint256",
          "name": "duration",
          "type": "uint256"
        }
      ],
      "name": "addSchedule",
      "outputs": [],
      "stateMutability": "nonpayable",
      "type": "function"
    },
    {
      "inputs": [
        {
          "internalType": "address[]",
          "name": "entries",
          "type": "address[]"
        }
      ],
      "name": "addToWhitelist",
      "outputs": [],
      "stateMutability": "nonpayable",
      "type": "function"
    },
    {
      "inputs": [
        {
          "internalType": "address",
          "name": "owner",
          "type": "address"
        },
        {
          "internalType": "uint8",
          "name": "tierIndex",
          "type": "uint8"
        }
      ],
      "name": "balanceOf",
      "outputs": [
        {
          "internalType": "uint256",
          "name": "",
          "type": "uint256"
        }
      ],
      "stateMutability": "view",
      "type": "function"
    },
    {
      "inputs": [
        {
          "internalType": "uint8",
          "name": "",
          "type": "uint8"
        }
      ],
      "name": "buyLimit",
      "outputs": [
        {
          "internalType": "uint8",
          "name": "",
          "type": "uint8"
        }
      ],
      "stateMutability": "view",
      "type": "function"
    },
    {
      "inputs": [
        {
          "internalType": "address",
          "name": "",
          "type": "address"
        },
        {
          "internalType": "uint8",
          "name": "",
          "type": "uint8"
        }
      ],
      "name": "buyerList",
      "outputs": [
        {
          "internalType": "uint256",
          "name": "",
          "type": "uint256"
        }
      ],
      "stateMutability": "view",
      "type": "function"
    },
    {
      "inputs": [],
      "name": "contractURI",
      "outputs": [
        {
          "internalType": "string",
          "name": "",
          "type": "string"
        }
      ],
      "stateMutability": "view",
      "type": "function"
    },
    {
      "inputs": [],
      "name": "currentSaleID",
      "outputs": [
        {
          "internalType": "uint8",
          "name": "",
          "type": "uint8"
        }
      ],
      "stateMutability": "view",
      "type": "function"
    },
    {
      "inputs": [],
      "name": "currentSchedule",
      "outputs": [
        {
          "components": [
            {
              "internalType": "string",
              "name": "name",
              "type": "string"
            },
            {
              "internalType": "uint256",
              "name": "discount",
              "type": "uint256"
            },
            {
              "internalType": "uint256",
              "name": "startTimestamp",
              "type": "uint256"
            },
            {
              "internalType": "uint256",
              "name": "duration",
              "type": "uint256"
            }
          ],
          "internalType": "struct SaleContract.SaleSchedule",
          "name": "",
          "type": "tuple"
        }
      ],
      "stateMutability": "view",
      "type": "function"
    },
    {
      "inputs": [
        {
          "internalType": "uint8",
          "name": "",
          "type": "uint8"
        }
      ],
      "name": "defaultPrices",
      "outputs": [
        {
          "internalType": "uint256",
          "name": "",
          "type": "uint256"
        }
      ],
      "stateMutability": "view",
      "type": "function"
    },
    {
      "inputs": [
        {
          "internalType": "uint8",
          "name": "tierIndex",
          "type": "uint8"
        },
        {
          "internalType": "uint256",
          "name": "tokenQuantity",
          "type": "uint256"
        }
      ],
      "name": "discountPrice",
      "outputs": [
        {
          "internalType": "uint256",
          "name": "",
          "type": "uint256"
        }
      ],
      "stateMutability": "view",
      "type": "function"
    },
    {
      "inputs": [],
      "name": "getNftToken",
      "outputs": [
        {
          "internalType": "address",
          "name": "",
          "type": "address"
        }
      ],
      "stateMutability": "view",
      "type": "function"
    },
    {
      "inputs": [
        {
          "internalType": "bytes32",
          "name": "role",
          "type": "bytes32"
        }
      ],
      "name": "getRoleAdmin",
      "outputs": [
        {
          "internalType": "bytes32",
          "name": "",
          "type": "bytes32"
        }
      ],
      "stateMutability": "view",
      "type": "function"
    },
    {
      "inputs": [],
      "name": "getSigner",
      "outputs": [
        {
          "internalType": "address",
          "name": "",
          "type": "address"
        }
      ],
      "stateMutability": "view",
      "type": "function"
    },
    {
      "inputs": [],
      "name": "getTokenPool",
      "outputs": [
        {
          "internalType": "address",
          "name": "",
          "type": "address"
        }
      ],
      "stateMutability": "view",
      "type": "function"
    },
    {
      "inputs": [
        {
          "internalType": "address",
          "name": "receiver",
          "type": "address"
        },
        {
          "internalType": "uint8",
          "name": "tierIndex",
          "type": "uint8"
        },
        {
          "internalType": "uint256",
          "name": "tokenQuantity",
          "type": "uint256"
        }
      ],
      "name": "gift",
      "outputs": [],
      "stateMutability": "nonpayable",
      "type": "function"
    },
    {
      "inputs": [
        {
          "internalType": "address",
          "name": "receiver",
          "type": "address"
        },
        {
          "internalType": "uint8[]",
          "name": "tierIndexes",
          "type": "uint8[]"
        },
        {
          "internalType": "uint256[]",
          "name": "tokenQuantities",
          "type": "uint256[]"
        }
      ],
      "name": "giftEx",
      "outputs": [],
      "stateMutability": "nonpayable",
      "type": "function"
    },
    {
      "inputs": [
        {
          "internalType": "uint8",
          "name": "",
          "type": "uint8"
        }
      ],
      "name": "giftLimit",
      "outputs": [
        {
          "internalType": "uint8",
          "name": "",
          "type": "uint8"
        }
      ],
      "stateMutability": "view",
      "type": "function"
    },
    {
      "inputs": [
        {
          "internalType": "address",
          "name": "",
          "type": "address"
        },
        {
          "internalType": "uint8",
          "name": "",
          "type": "uint8"
        }
      ],
      "name": "giftList",
      "outputs": [
        {
          "internalType": "uint256",
          "name": "",
          "type": "uint256"
        }
      ],
      "stateMutability": "view",
      "type": "function"
    },
    {
      "inputs": [
        {
          "internalType": "uint8",
          "name": "tierIndex",
          "type": "uint8"
        }
      ],
      "name": "giftSupply",
      "outputs": [
        {
          "internalType": "uint256",
          "name": "",
          "type": "uint256"
        }
      ],
      "stateMutability": "view",
      "type": "function"
    },
    {
      "inputs": [
        {
          "internalType": "address[]",
          "name": "receivers",
          "type": "address[]"
        },
        {
          "internalType": "uint8[]",
          "name": "tierIndexes",
          "type": "uint8[]"
        },
        {
          "internalType": "uint256[]",
          "name": "tokenQuantities",
          "type": "uint256[]"
        }
      ],
      "name": "giftToAll",
      "outputs": [],
      "stateMutability": "nonpayable",
      "type": "function"
    },
    {
      "inputs": [
        {
          "internalType": "bytes32",
          "name": "role",
          "type": "bytes32"
        },
        {
          "internalType": "address",
          "name": "account",
          "type": "address"
        }
      ],
      "name": "grantRole",
      "outputs": [],
      "stateMutability": "nonpayable",
      "type": "function"
    },
    {
      "inputs": [
        {
          "internalType": "bytes32",
          "name": "role",
          "type": "bytes32"
        },
        {
          "internalType": "address",
          "name": "account",
          "type": "address"
        }
      ],
      "name": "hasRole",
      "outputs": [
        {
          "internalType": "bool",
          "name": "",
          "type": "bool"
        }
      ],
      "stateMutability": "view",
      "type": "function"
    },
    {
      "inputs": [
        {
          "internalType": "address",
          "name": "token",
          "type": "address"
        },
        {
          "internalType": "address",
          "name": "pool",
          "type": "address"
        }
      ],
      "name": "initialize",
      "outputs": [],
      "stateMutability": "nonpayable",
      "type": "function"
    },
    {
      "inputs": [
        {
          "internalType": "address",
          "name": "user",
          "type": "address"
        }
      ],
      "name": "isBuyer",
      "outputs": [
        {
          "internalType": "bool",
          "name": "",
          "type": "bool"
        }
      ],
      "stateMutability": "view",
      "type": "function"
    },
    {
      "inputs": [
        {
          "internalType": "address",
          "name": "user",
          "type": "address"
        }
      ],
      "name": "isWhitelist",
      "outputs": [
        {
          "internalType": "bool",
          "name": "",
          "type": "bool"
        }
      ],
      "stateMutability": "view",
      "type": "function"
    },
    {
      "inputs": [],
      "name": "locked",
      "outputs": [
        {
          "internalType": "bool",
          "name": "",
          "type": "bool"
        }
      ],
      "stateMutability": "view",
      "type": "function"
    },
    {
      "inputs": [],
      "name": "nftToken",
      "outputs": [
        {
          "internalType": "address",
          "name": "",
          "type": "address"
        }
      ],
      "stateMutability": "view",
      "type": "function"
    },
    {
      "inputs": [
        {
          "internalType": "address[]",
          "name": "entries",
          "type": "address[]"
        }
      ],
      "name": "removeFromWhitelist",
      "outputs": [],
      "stateMutability": "nonpayable",
      "type": "function"
    },
    {
      "inputs": [
        {
          "internalType": "uint256",
          "name": "index",
          "type": "uint256"
        }
      ],
      "name": "removeSchedule",
      "outputs": [],
      "stateMutability": "nonpayable",
      "type": "function"
    },
    {
      "inputs": [
        {
          "internalType": "bytes32",
          "name": "role",
          "type": "bytes32"
        },
        {
          "internalType": "address",
          "name": "account",
          "type": "address"
        }
      ],
      "name": "renounceRole",
      "outputs": [],
      "stateMutability": "nonpayable",
      "type": "function"
    },
    {
      "inputs": [
        {
          "internalType": "bytes32",
          "name": "role",
          "type": "bytes32"
        },
        {
          "internalType": "address",
          "name": "account",
          "type": "address"
        }
      ],
      "name": "revokeRole",
      "outputs": [],
      "stateMutability": "nonpayable",
      "type": "function"
    },
    {
      "inputs": [],
      "name": "saleOnlyWhitelist",
      "outputs": [
        {
          "internalType": "bool",
          "name": "",
          "type": "bool"
        }
      ],
      "stateMutability": "view",
      "type": "function"
    },
    {
      "inputs": [
        {
          "internalType": "uint256",
          "name": "",
          "type": "uint256"
        }
      ],
      "name": "saleSchedules",
      "outputs": [
        {
          "internalType": "string",
          "name": "name",
          "type": "string"
        },
        {
          "internalType": "uint256",
          "name": "discount",
          "type": "uint256"
        },
        {
          "internalType": "uint256",
          "name": "startTimestamp",
          "type": "uint256"
        },
        {
          "internalType": "uint256",
          "name": "duration",
          "type": "uint256"
        }
      ],
      "stateMutability": "view",
      "type": "function"
    },
    {
      "inputs": [
        {
          "internalType": "uint8",
          "name": "tierIndex",
          "type": "uint8"
        },
        {
          "internalType": "uint8",
          "name": "limit",
          "type": "uint8"
        }
      ],
      "name": "setBuyLimit",
      "outputs": [],
      "stateMutability": "nonpayable",
      "type": "function"
    },
    {
      "inputs": [
        {
          "internalType": "string",
          "name": "URI",
          "type": "string"
        }
      ],
      "name": "setContractURI",
      "outputs": [],
      "stateMutability": "nonpayable",
      "type": "function"
    },
    {
      "inputs": [
        {
          "internalType": "uint8",
          "name": "tierIndex",
          "type": "uint8"
        },
        {
          "internalType": "uint256",
          "name": "price",
          "type": "uint256"
        }
      ],
      "name": "setDefaultPrice",
      "outputs": [],
      "stateMutability": "nonpayable",
      "type": "function"
    },
    {
      "inputs": [
        {
          "internalType": "uint8",
          "name": "tierIndex",
          "type": "uint8"
        },
        {
          "internalType": "uint8",
          "name": "limit",
          "type": "uint8"
        }
      ],
      "name": "setGiftLimit",
      "outputs": [],
      "stateMutability": "nonpayable",
      "type": "function"
    },
    {
      "inputs": [
        {
          "internalType": "address",
          "name": "signer",
          "type": "address"
        }
      ],
      "name": "setSigner",
      "outputs": [],
      "stateMutability": "nonpayable",
      "type": "function"
    },
    {
      "inputs": [
        {
          "internalType": "address",
          "name": "treasury",
          "type": "address"
        }
      ],
      "name": "setupTreasury",
      "outputs": [],
      "stateMutability": "nonpayable",
      "type": "function"
    },
    {
      "inputs": [
        {
          "internalType": "bytes32",
          "name": "hash",
          "type": "bytes32"
        },
        {
          "internalType": "bytes",
          "name": "signature",
          "type": "bytes"
        },
        {
          "internalType": "string",
          "name": "nonce",
          "type": "string"
        },
        {
          "internalType": "uint8",
          "name": "tierIndex",
          "type": "uint8"
        },
        {
          "internalType": "uint256",
          "name": "tokenQuantity",
          "type": "uint256"
        }
      ],
      "name": "signBuy",
      "outputs": [],
      "stateMutability": "payable",
      "type": "function"
    },
    {
      "inputs": [
        {
          "internalType": "bytes32",
          "name": "hash",
          "type": "bytes32"
        },
        {
          "internalType": "bytes",
          "name": "signature",
          "type": "bytes"
        },
        {
          "internalType": "string",
          "name": "nonce",
          "type": "string"
        },
        {
          "internalType": "uint8[]",
          "name": "tierIndexes",
          "type": "uint8[]"
        },
        {
          "internalType": "uint256[]",
          "name": "tokenQuantities",
          "type": "uint256[]"
        }
      ],
      "name": "signBuyEx",
      "outputs": [],
      "stateMutability": "payable",
      "type": "function"
    },
    {
      "inputs": [
        {
          "internalType": "bytes4",
          "name": "interfaceId",
          "type": "bytes4"
        }
      ],
      "name": "supportsInterface",
      "outputs": [
        {
          "internalType": "bool",
          "name": "",
          "type": "bool"
        }
      ],
      "stateMutability": "view",
      "type": "function"
    },
    {
      "inputs": [],
      "name": "toggleLock",
      "outputs": [],
      "stateMutability": "nonpayable",
      "type": "function"
    },
    {
      "inputs": [],
      "name": "toggleSaleOnlyWhitelist",
      "outputs": [],
      "stateMutability": "nonpayable",
      "type": "function"
    },
    {
      "inputs": [],
      "name": "tokenPool",
      "outputs": [
        {
          "internalType": "address",
          "name": "",
          "type": "address"
        }
      ],
      "stateMutability": "view",
      "type": "function"
    },
    {
      "inputs": [
        {
          "internalType": "uint8",
          "name": "tierIndex",
          "type": "uint8"
        }
      ],
      "name": "totalSupply",
      "outputs": [
        {
          "internalType": "uint256",
          "name": "",
          "type": "uint256"
        }
      ],
      "stateMutability": "view",
      "type": "function"
    },
    {
      "inputs": [],
      "name": "treasuryAddress",
      "outputs": [
        {
          "internalType": "address",
          "name": "",
          "type": "address"
        }
      ],
      "stateMutability": "view",
      "type": "function"
    },
    {
      "inputs": [
        {
          "internalType": "uint8",
          "name": "saleId",
          "type": "uint8"
        },
        {
          "internalType": "string",
          "name": "name",
          "type": "string"
        },
        {
          "internalType": "uint8",
          "name": "discount",
          "type": "uint8"
        },
        {
          "internalType": "uint256",
          "name": "startTimestamp",
          "type": "uint256"
        },
        {
          "internalType": "uint256",
          "name": "duration",
          "type": "uint256"
        }
      ],
      "name": "updateSchedule",
      "outputs": [],
      "stateMutability": "nonpayable",
      "type": "function"
    },
    {
      "inputs": [
        {
          "internalType": "address",
          "name": "",
          "type": "address"
        }
      ],
      "name": "whiteList",
      "outputs": [
        {
          "internalType": "bool",
          "name": "",
          "type": "bool"
        }
      ],
      "stateMutability": "view",
      "type": "function"
    },
    {
      "inputs": [
        {
          "internalType": "uint8",
          "name": "tierIndex",
          "type": "uint8"
        },
        {
          "internalType": "uint256",
          "name": "tokenQuantity",
          "type": "uint256"
        }
      ],
      "name": "whitelistBuy",
      "outputs": [],
      "stateMutability": "payable",
      "type": "function"
    },
    {
      "inputs": [
        {
          "internalType": "uint8[]",
          "name": "tierIndexes",
          "type": "uint8[]"
        },
        {
          "internalType": "uint256[]",
          "name": "tokenQuantities",
          "type": "uint256[]"
        }
      ],
      "name": "whitelistBuyEx",
      "outputs": [],
      "stateMutability": "payable",
      "type": "function"
    },
    {
      "inputs": [],
      "name": "withdraw",
      "outputs": [],
      "stateMutability": "nonpayable",
      "type": "function"
    }
  ],
  "bytecode": "0x60806040523480156200001157600080fd5b506001805562000023600033620001c6565b6200004f7f9f2df0fed2c77648de5860a4cc508cd0818c85b8b8a1ab4ceeef8d981c8956a633620001c6565b6200006a60008051602062004eac83398151915233620001c6565b600d80546001600160a01b0319163317905560046020908152670af6a4d07c8f00007f17ef568e3e12ab5b9c7254a8d58478811de00f9e6eb34345acd53bf8fd09d3ec556001600052670118aa14d94180007fabd6e7cb50984ff9c2f3e18a2660c3353dadf4e3291deeb275dae2cd1e44fe055560408051808201909152600981526815da1a5d19531a5cdd60ba1b9181019190915262000112906019426212750062000267565b6040805180820190915260088152675072652d53616c6560c01b60208201526200015190600a62000147426212750062000822565b62093a8062000267565b60408051808201909152600b81526a5075626c69632d53616c6560a81b6020820152620001899060006200014742621baf8062000822565b620001976000600362000310565b620001a56001600362000310565b620001b3600060016200039c565b620001c06001806200039c565b620008ff565b6000828152602081815260408083206001600160a01b038516845290915290205460ff1662000263576000828152602081815260408083206001600160a01b03851684529091529020805460ff19166001179055620002223390565b6001600160a01b0316816001600160a01b0316837f2f8788117e7eff1d82e926ec794901d17c78024a50270940304540a733656f0d60405160405180910390a45b5050565b600062000274816200041f565b6040805160808101825286815260ff8616602080830191909152918101859052606081018490526010805460018101825560009190915281518051929360049092027f1b6847dc741a1b0cd08d278845f9d819d87b734759afb55fe2de5cb82a9ae6720192620002e89284920190620006ce565b5060208201518160010155604082015181600201556060820151816003015550505050505050565b60006200031d816200041f565b60008051602062004eac83398151915262000338816200041f565b60ff848116600081815260026020908152604091829020805460ff19169488169485179055815192835282019290925233917f6082d36730c1beaf3dfd8a9a3ef49801f23ce4f819f33cce97c40b03e446200a91015b60405180910390a250505050565b6000620003a9816200041f565b60008051602062004eac833981519152620003c4816200041f565b60ff848116600081815260036020908152604091829020805460ff19169488169485179055815192835282019290925233917f721ca23739e925c0ca1381513fca78ab3c9176698637827651ddaa4bebb2167091016200038e565b6200042b81336200042e565b50565b6000828152602081815260408083206001600160a01b038516845290915290205460ff16620002635762000478816001600160a01b03166014620004d260201b620030471760201c565b6200048e83602062003047620004d2821b17811c565b604051602001620004a192919062000774565b60408051601f198184030181529082905262461bcd60e51b8252620004c991600401620007ed565b60405180910390fd5b60606000620004e38360026200083d565b620004f090600262000822565b6001600160401b038111156200051657634e487b7160e01b600052604160045260246000fd5b6040519080825280601f01601f19166020018201604052801562000541576020820181803683370190505b509050600360fc1b816000815181106200056b57634e487b7160e01b600052603260045260246000fd5b60200101906001600160f81b031916908160001a905350600f60fb1b81600181518110620005a957634e487b7160e01b600052603260045260246000fd5b60200101906001600160f81b031916908160001a9053506000620005cf8460026200083d565b620005dc90600162000822565b90505b600181111562000676576f181899199a1a9b1b9c1cb0b131b232b360811b85600f16601081106200062057634e487b7160e01b600052603260045260246000fd5b1a60f81b8282815181106200064557634e487b7160e01b600052603260045260246000fd5b60200101906001600160f81b031916908160001a90535060049490941c936200066e8162000892565b9050620005df565b508315620006c75760405162461bcd60e51b815260206004820181905260248201527f537472696e67733a20686578206c656e67746820696e73756666696369656e746044820152606401620004c9565b9392505050565b828054620006dc90620008ac565b90600052602060002090601f0160209004810192826200070057600085556200074b565b82601f106200071b57805160ff19168380011785556200074b565b828001600101855582156200074b579182015b828111156200074b5782518255916020019190600101906200072e565b50620007599291506200075d565b5090565b5b808211156200075957600081556001016200075e565b7f416363657373436f6e74726f6c3a206163636f756e7420000000000000000000815260008351620007ae8160178501602088016200085f565b7001034b99036b4b9b9b4b733903937b6329607d1b6017918401918201528351620007e18160288401602088016200085f565b01602801949350505050565b60208152600082518060208401526200080e8160408501602087016200085f565b601f01601f19169190910160400192915050565b60008219821115620008385762000838620008e9565b500190565b60008160001904831182151516156200085a576200085a620008e9565b500290565b60005b838110156200087c57818101518382015260200162000862565b838111156200088c576000848401525b50505050565b600081620008a457620008a4620008e9565b506000190190565b600181811c90821680620008c157607f821691505b60208210811415620008e357634e487b7160e01b600052602260045260246000fd5b50919050565b634e487b7160e01b600052601160045260246000fd5b61459d806200090f6000396000f3fe6080604052600436106103505760003560e01c80637ac3c02f116101c6578063d06fcba8116100f7578063e58378bb11610095578063f0367bc71161006f578063f0367bc714610a5b578063f4d71d1514610a6e578063f7f1cbf114610a8e578063ff9413d814610aae57600080fd5b8063e58378bb14610a02578063e8a3d48514610a24578063ec55dd4214610a4657600080fd5b8063d547741f116100d1578063d547741f1461095a578063d8ab14b01461097a578063d9cae156146109aa578063dcdeb7b6146109e257600080fd5b8063d06fcba8146108f0578063d3287e4c14610918578063d53913931461093857600080fd5b8063abf0d4b711610164578063c5f956af1161013e578063c5f956af14610871578063c683630d14610891578063cba307bb146108b1578063cf309012146108d157600080fd5b8063abf0d4b71461081e578063ae78e1191461083e578063b6ccda901461085e57600080fd5b806391d14854116101a057806391d14854146107a7578063938e3d7b146107c7578063a217fddf146107e7578063a88ea616146107fc57600080fd5b80637ac3c02f146107395780637f6497831461075757806390e45bdd1461077757600080fd5b80633ccfd60b116102a0578063511718961161023e5780635f5cedec116102185780635f5cedec146106b457806367412045146106c95780636c19e783146106e95780637ab487641461070957600080fd5b8063511718961461066157806352ddc55714610681578063548db1741461069457600080fd5b8063452de0e61161027a578063452de0e6146105d2578063485cc955146105fe578063496d9f441461061e5780634f8c0b221461064e57600080fd5b80633ccfd60b1461057d5780633fe7df0c14610592578063433ebfe7146105b257600080fd5b8063237af4f61161030d5780632a55feec116102e75780632a55feec146104ec5780632f2ff15d1461050d57806336568abe1461052d578063372c12b11461054d57600080fd5b8063237af4f61461046c578063248a9ca31461048c57806329e239cc146104bc57600080fd5b806301ffc9a714610355578063104e99291461038a5780631c95867f146103c25780631ce2f0c2146103d95780631fb61c02146103f95780632298a99014610434575b600080fd5b34801561036157600080fd5b50610375610370366004613f7c565b610ac3565b60405190151581526020015b60405180910390f35b34801561039657600080fd5b50600b546103aa906001600160a01b031681565b6040516001600160a01b039091168152602001610381565b3480156103ce57600080fd5b506103d7610afa565b005b3480156103e557600080fd5b506103d76103f4366004613ffe565b610b3e565b34801561040557600080fd5b50610426610414366004614058565b60046020526000908152604090205481565b604051908152602001610381565b34801561044057600080fd5b5061042661044f366004613c31565b600860209081526000928352604080842090915290825290205481565b34801561047857600080fd5b506103d76104873660046140df565b610be3565b34801561049857600080fd5b506104266104a7366004613e0f565b60009081526020819052604090206001015490565b3480156104c857600080fd5b506104dc6104d7366004613e0f565b610c43565b6040516103819493929190614232565b3480156104f857600080fd5b50610375610507366004613b75565b50600090565b34801561051957600080fd5b506103d7610528366004613e27565b610d0b565b34801561053957600080fd5b506103d7610548366004613e27565b610d35565b34801561055957600080fd5b50610375610568366004613b75565b60076020526000908152604090205460ff1681565b34801561058957600080fd5b506103d7610db8565b34801561059e57600080fd5b506103d76105ad366004614108565b610ee3565b3480156105be57600080fd5b50600a546103759062010000900460ff1681565b3480156105de57600080fd5b50600a546105ec9060ff1681565b60405160ff9091168152602001610381565b34801561060a57600080fd5b506103d7610619366004613b8f565b610f6a565b34801561062a57600080fd5b50610426610639366004614058565b60ff1660009081526005602052604090205490565b6103d761065c366004613efa565b611225565b34801561066d57600080fd5b506103d761067c366004613b75565b611611565b6103d761068f366004613e49565b61163f565b3480156106a057600080fd5b506103d76106af366004613c95565b611b4c565b3480156106c057600080fd5b506103aa611c30565b3480156106d557600080fd5b506104266106e4366004613c31565b611ca0565b3480156106f557600080fd5b506103d7610704366004613b75565b611d1b565b34801561071557600080fd5b506105ec610724366004614058565b60026020526000908152604090205460ff1681565b34801561074557600080fd5b50600d546001600160a01b03166103aa565b34801561076357600080fd5b506103d7610772366004613c95565b611d49565b34801561078357600080fd5b50610426610792366004614058565b60ff1660009081526006602052604090205490565b3480156107b357600080fd5b506103756107c2366004613e27565b611e29565b3480156107d357600080fd5b506103d76107e2366004613fa4565b611e52565b3480156107f357600080fd5b50610426600081565b34801561080857600080fd5b50610811611eb5565b6040516103819190614313565b34801561082a57600080fd5b506103d7610839366004613c5a565b61202d565b34801561084a57600080fd5b506104266108593660046140df565b6120cd565b6103d761086c3660046140df565b612264565b34801561087d57600080fd5b50600c546103aa906001600160a01b031681565b34801561089d57600080fd5b506103756108ac366004613b75565b612503565b3480156108bd57600080fd5b506103d76108cc366004613d04565b61256e565b3480156108dd57600080fd5b50600a5461037590610100900460ff1681565b3480156108fc57600080fd5b50600a546103aa9064010000000090046001600160a01b031681565b34801561092457600080fd5b506103d7610933366004613e0f565b6126f9565b34801561094457600080fd5b5061042660008051602061454883398151915281565b34801561096657600080fd5b506103d7610975366004613e27565b612808565b34801561098657600080fd5b506105ec610995366004614058565b60036020526000908152604090205460ff1681565b3480156109b657600080fd5b506104266109c5366004613c31565b600960209081526000928352604080842090915290825290205481565b3480156109ee57600080fd5b506103d76109fd366004614072565b61282d565b348015610a0e57600080fd5b5061042660008051602061452883398151915281565b348015610a3057600080fd5b50610a3961299b565b604051610381919061421f565b348015610a5257600080fd5b506103aa612a2d565b6103d7610a69366004613daf565b612a8f565b348015610a7a57600080fd5b506103d7610a89366004614108565b612dfd565b348015610a9a57600080fd5b506103d7610aa9366004613bc1565b612e7a565b348015610aba57600080fd5b506103d7612fc2565b60006001600160e01b03198216637965db0b60e01b1480610af457506301ffc9a760e01b6001600160e01b03198316145b92915050565b6000610b058161322f565b600080516020614528833981519152610b1d8161322f565b5050600a805462ff0000198116620100009182900460ff1615909102179055565b6000610b498161322f565b6040805160808101825286815260ff8616602080830191909152918101859052606081018490526010805460018101825560009190915281518051929360049092027f1b6847dc741a1b0cd08d278845f9d819d87b734759afb55fe2de5cb82a9ae6720192610bbb928492019061384d565b5060208201518160010155604082015181600201556060820151816003015550505050505050565b6000610bee8161322f565b60ff83166000818152600460209081526040918290208590558151928352820184905233917f1e87336fe03524e63d2452655931a6ec52da4d6b1ba04c3feee900a127ba683a910160405180910390a2505050565b60108181548110610c5357600080fd5b9060005260206000209060040201600091509050806000018054610c7690614485565b80601f0160208091040260200160405190810160405280929190818152602001828054610ca290614485565b8015610cef5780601f10610cc457610100808354040283529160200191610cef565b820191906000526020600020905b815481529060010190602001808311610cd257829003601f168201915b5050505050908060010154908060020154908060030154905084565b600082815260208190526040902060010154610d268161322f565b610d30838361323c565b505050565b6001600160a01b0381163314610daa5760405162461bcd60e51b815260206004820152602f60248201527f416363657373436f6e74726f6c3a2063616e206f6e6c792072656e6f756e636560448201526e103937b632b9903337b91039b2b63360891b60648201526084015b60405180910390fd5b610db482826132c0565b5050565b6000610dc38161322f565b600080516020614528833981519152610ddb8161322f565b600080516020614548833981519152610df38161322f565b600c546000906001600160a01b031615610e1857600c546001600160a01b0316610e1a565b335b90506000816001600160a01b03164760405160006040518083038185875af1925050503d8060008114610e69576040519150601f19603f3d011682016040523d82523d6000602084013e610e6e565b606091505b5050905080610eb15760405162461bcd60e51b815260206004820152600f60248201526e15d2551211149055d7d19052531151608a1b6044820152606401610da1565b60405133907ff67611512e0a2d90c96fd3f08dca4971bc45fba9dc679eabe839a32abbe58a8e90600090a25050505050565b6000610eee8161322f565b600080516020614528833981519152610f068161322f565b60ff848116600081815260036020908152604091829020805460ff19169488169485179055815192835282019290925233917f721ca23739e925c0ca1381513fca78ab3c9176698637827651ddaa4bebb2167091015b60405180910390a250505050565b600a546301000000900460ff1615610fba5760405162461bcd60e51b81526020600482015260136024820152721053149150511657d253925512505312569151606a1b6044820152606401610da1565b600a805463ff00000019166301000000179055601080546040805160208084028201810190925282815260009384939192909190849084015b828210156110d5578382906000526020600020906004020160405180608001604052908160008201805461102690614485565b80601f016020809104026020016040519081016040528092919081815260200182805461105290614485565b801561109f5780601f106110745761010080835404028352916020019161109f565b820191906000526020600020905b81548152906001019060200180831161108257829003601f168201915b50505050508152602001600182015481526020016002820154815260200160038201548152505081526020019060010190610ff3565b50505050905060005b81518160ff161015611199576000828260ff168151811061110f57634e487b7160e01b600052603260045260246000fd5b60200260200101516040015190506000838360ff168151811061114257634e487b7160e01b600052603260045260246000fd5b6020026020010151606001518261115991906143ac565b905042821115801561116b5750804211155b156111845761117b8360016143c4565b94505050611199565b50508080611191906144db565b9150506110de565b5060ff82166111ba5760405162461bcd60e51b8152600401610da19061428f565b600a5460ff8381169116146111d957600a805460ff191660ff84161790555b60006111e48161322f565b5050600a8054640100000000600160c01b0319166401000000006001600160a01b039586160217905550600b80546001600160a01b03191691909216179055565b6000806010805480602002602001604051908101604052809291908181526020016000905b8282101561132c578382906000526020600020906004020160405180608001604052908160008201805461127d90614485565b80601f01602080910402602001604051908101604052809291908181526020018280546112a990614485565b80156112f65780601f106112cb576101008083540402835291602001916112f6565b820191906000526020600020905b8154815290600101906020018083116112d957829003601f168201915b5050505050815260200160018201548152602001600282015481526020016003820154815250508152602001906001019061124a565b50505050905060005b81518160ff1610156113f0576000828260ff168151811061136657634e487b7160e01b600052603260045260246000fd5b60200260200101516040015190506000838360ff168151811061139957634e487b7160e01b600052603260045260246000fd5b602002602001015160600151826113b091906143ac565b90504282111580156113c25750804211155b156113db576113d28360016143c4565b945050506113f0565b505080806113e8906144db565b915050611335565b5060ff82166114115760405162461bcd60e51b8152600401610da19061428f565b600a5460ff83811691161461143057600a805460ff191660ff84161790555b600260015414156114535760405162461bcd60e51b8152600401610da1906142dc565b60026001556114628787613325565b6114a65760405162461bcd60e51b81526020600482015260156024820152741112549150d517d0955657d11254d0531313d5d151605a1b6044820152606401610da1565b600e856040516114b6919061418e565b9081526040519081900360200190205460ff16156115025760405162461bcd60e51b8152602060048201526009602482015268121054d217d554d15160ba1b6044820152606401610da1565b61150b87613356565b6115163385886133a9565b1461154f5760405162461bcd60e51b8152602060048201526009602482015268121054d217d190525360ba1b6044820152606401610da1565b600a5460ff166001148061156b5750600a5462010000900460ff165b1561159f573360009081526007602052604090205460ff1661159f5760405162461bcd60e51b8152600401610da1906142b5565b346115aa85856120cd565b11156115c85760405162461bcd60e51b8152600401610da190614261565b6115d284846133e8565b6001600e866040516115e4919061418e565b908152604051908190036020019020805491151560ff199092169190911790555050600180555050505050565b600061161c8161322f565b50600c80546001600160a01b0319166001600160a01b0392909216919091179055565b6000806010805480602002602001604051908101604052809291908181526020016000905b82821015611746578382906000526020600020906004020160405180608001604052908160008201805461169790614485565b80601f01602080910402602001604051908101604052809291908181526020018280546116c390614485565b80156117105780601f106116e557610100808354040283529160200191611710565b820191906000526020600020905b8154815290600101906020018083116116f357829003601f168201915b50505050508152602001600182015481526020016002820154815260200160038201548152505081526020019060010190611664565b50505050905060005b81518160ff16101561180a576000828260ff168151811061178057634e487b7160e01b600052603260045260246000fd5b60200260200101516040015190506000838360ff16815181106117b357634e487b7160e01b600052603260045260246000fd5b602002602001015160600151826117ca91906143ac565b90504282111580156117dc5750804211155b156117f5576117ec8360016143c4565b9450505061180a565b50508080611802906144db565b91505061174f565b5060ff821661182b5760405162461bcd60e51b8152600401610da19061428f565b600a5460ff83811691161461184a57600a805460ff191660ff84161790555b6002600154141561186d5760405162461bcd60e51b8152600401610da1906142dc565b600260015561187c8787613325565b6118c05760405162461bcd60e51b81526020600482015260156024820152741112549150d517d0955657d11254d0531313d5d151605a1b6044820152606401610da1565b600e856040516118d0919061418e565b9081526040519081900360200190205460ff161561191c5760405162461bcd60e51b8152602060048201526009602482015268121054d217d554d15160ba1b6044820152606401610da1565b600a5460ff16600114806119385750600a5462010000900460ff165b1561196c573360009081526007602052604090205460ff1661196c5760405162461bcd60e51b8152600401610da1906142b5565b60008060005b8651811015611a26576119d387828151811061199e57634e487b7160e01b600052603260045260246000fd5b60200260200101518783815181106119c657634e487b7160e01b600052603260045260246000fd5b60200260200101516120cd565b6119dd90846143ac565b92508581815181106119ff57634e487b7160e01b600052603260045260246000fd5b602002602001015182611a1291906143ac565b915080611a1e816144c0565b915050611972565b50611a3089613356565b611a3b33838a6133a9565b14611a745760405162461bcd60e51b8152602060048201526009602482015268121054d217d190525360ba1b6044820152606401610da1565b34821115611a945760405162461bcd60e51b8152600401610da190614261565b60005b8651811015611b0a57611af8878281518110611ac357634e487b7160e01b600052603260045260246000fd5b6020026020010151878381518110611aeb57634e487b7160e01b600052603260045260246000fd5b60200260200101516133e8565b80611b02816144c0565b915050611a97565b506001600e88604051611b1d919061418e565b908152604051908190036020019020805491151560ff1990921691909117905550506001805550505050505050565b6000611b578161322f565b600080516020614528833981519152611b6f8161322f565b60005b83811015611c29576000858583818110611b9c57634e487b7160e01b600052603260045260246000fd5b9050602002016020810190611bb19190613b75565b90506001600160a01b038116611bf85760405162461bcd60e51b815260206004820152600c60248201526b4e554c4c5f4144445245535360a01b6044820152606401610da1565b6001600160a01b03166000908152600760205260409020805460ff1916905580611c21816144c0565b915050611b72565b5050505050565b600a5460009064010000000090046001600160a01b0316611c885760405162461bcd60e51b8152602060048201526012602482015271544f4b454e5f5a45524f5f4144445245535360701b6044820152606401610da1565b50600a5464010000000090046001600160a01b031690565b60006001600160a01b038316611ced5760405162461bcd60e51b81526020600482015260126024820152714f574e45525f5a45524f5f4144445245535360701b6044820152606401610da1565b506001600160a01b038216600090815260086020908152604080832060ff8516845290915290205492915050565b6000611d268161322f565b50600d80546001600160a01b0319166001600160a01b0392909216919091179055565b6000611d548161322f565b600080516020614528833981519152611d6c8161322f565b60005b83811015611c29576000858583818110611d9957634e487b7160e01b600052603260045260246000fd5b9050602002016020810190611dae9190613b75565b90506001600160a01b038116611df55760405162461bcd60e51b815260206004820152600c60248201526b4e554c4c5f4144445245535360a01b6044820152606401610da1565b6001600160a01b03166000908152600760205260409020805460ff1916600117905580611e21816144c0565b915050611d6f565b6000918252602082815260408084206001600160a01b0393909316845291905290205460ff1690565b6000611e5d8161322f565b600a54610100900460ff1615611ea35760405162461bcd60e51b815260206004820152600b60248201526a14d0531157d313d0d2d15160aa1b6044820152606401610da1565b611eaf600f84846138d1565b50505050565b611ee06040518060800160405280606081526020016000815260200160008152602001600081525090565b600a5460ff16611f245760405162461bcd60e51b815260206004820152600f60248201526e1253959053125117d4d0531157d251608a1b6044820152606401610da1565b600a54600090601090611f3c9060019060ff1661441f565b60ff1681548110611f5d57634e487b7160e01b600052603260045260246000fd5b9060005260206000209060040201604051806080016040529081600082018054611f8690614485565b80601f0160208091040260200160405190810160405280929190818152602001828054611fb290614485565b8015611fff5780601f10611fd457610100808354040283529160200191611fff565b820191906000526020600020905b815481529060010190602001808311611fe257829003601f168201915b5050509183525050600182015460208201526002820154604082015260039091015460609091015291505090565b60006120388161322f565b6000805160206145288339815191526120508161322f565b6000805160206145488339815191526120688161322f565b6001600160a01b03861660009081526007602052604090205460ff166120c55760405162461bcd60e51b815260206004820152601260248201527111d2519517d393d517d4555053125192515160721b6044820152606401610da1565b505050505050565b600a5460009060ff166121145760405162461bcd60e51b815260206004820152600f60248201526e1253959053125117d4d0531157d251608a1b6044820152606401610da1565b600a546010805460009260001960ff918216011690811061214557634e487b7160e01b600052603260045260246000fd5b906000526020600020906004020160405180608001604052908160008201805461216e90614485565b80601f016020809104026020016040519081016040528092919081815260200182805461219a90614485565b80156121e75780601f106121bc576101008083540402835291602001916121e7565b820191906000526020600020905b8154815290600101906020018083116121ca57829003601f168201915b50505050508152602001600182015481526020016002820154815260200160038201548152505090506000600460008660ff1660ff16815260200190815260200160002054905060006064836020015183028161225457634e487b7160e01b600052601260045260246000fd5b0490910384029250505092915050565b6000806010805480602002602001604051908101604052809291908181526020016000905b8282101561236b57838290600052602060002090600402016040518060800160405290816000820180546122bc90614485565b80601f01602080910402602001604051908101604052809291908181526020018280546122e890614485565b80156123355780601f1061230a57610100808354040283529160200191612335565b820191906000526020600020905b81548152906001019060200180831161231857829003601f168201915b50505050508152602001600182015481526020016002820154815260200160038201548152505081526020019060010190612289565b50505050905060005b81518160ff16101561242f576000828260ff16815181106123a557634e487b7160e01b600052603260045260246000fd5b60200260200101516040015190506000838360ff16815181106123d857634e487b7160e01b600052603260045260246000fd5b602002602001015160600151826123ef91906143ac565b90504282111580156124015750804211155b1561241a576124118360016143c4565b9450505061242f565b50508080612427906144db565b915050612374565b5060ff82166124505760405162461bcd60e51b8152600401610da19061428f565b600a5460ff83811691161461246f57600a805460ff191660ff84161790555b600260015414156124925760405162461bcd60e51b8152600401610da1906142dc565b60026001553360009081526007602052604090205460ff166124c65760405162461bcd60e51b8152600401610da1906142b5565b346124d185856120cd565b11156124ef5760405162461bcd60e51b8152600401610da190614261565b6124f984846133e8565b5050600180555050565b60006001600160a01b03821661254f5760405162461bcd60e51b8152602060048201526011602482015270555345525f5a45524f5f4144445245535360781b6044820152606401610da1565b506001600160a01b031660009081526007602052604090205460ff1690565b60006125798161322f565b6000805160206145288339815191526125918161322f565b6000805160206145488339815191526125a98161322f565b83518551146125ef5760405162461bcd60e51b815260206004820152601260248201527111d2519517d25394155517d253959053125160721b6044820152606401610da1565b60005b86518110156126f0576007600088838151811061261f57634e487b7160e01b600052603260045260246000fd5b6020908102919091018101516001600160a01b031682528101919091526040016000205460ff16156126de5760005b86518110156126dc576126ca88838151811061267a57634e487b7160e01b600052603260045260246000fd5b60200260200101518883815181106126a257634e487b7160e01b600052603260045260246000fd5b6020026020010151888481518110611eaf57634e487b7160e01b600052603260045260246000fd5b806126d4816144c0565b91505061264e565b505b806126e8816144c0565b9150506125f2565b50505050505050565b60006127048161322f565b6010805461271490600190614408565b8154811061273257634e487b7160e01b600052603260045260246000fd5b90600052602060002090600402016010838154811061276157634e487b7160e01b600052603260045260246000fd5b9060005260206000209060040201600082018160000190805461278390614485565b61278e929190613945565b50600182810154908201556002808301549082015560039182015491015560108054806127cb57634e487b7160e01b600052603160045260246000fd5b600082815260208120600019909201916004830201906127eb82826139c0565b506000600182018190556002820181905560039091015590555050565b6000828152602081905260409020600101546128238161322f565b610d3083836132c0565b60006128388161322f565b60008660ff16118015612850575060105460ff871611155b61288c5760405162461bcd60e51b815260206004820152600d60248201526c29a0a622afa4a22fa2a92927a960991b6044820152606401610da1565b8460106001880360ff16815481106128b457634e487b7160e01b600052603260045260246000fd5b906000526020600020906004020160000190805190602001906128d892919061384d565b508360ff1660106001880360ff168154811061290457634e487b7160e01b600052603260045260246000fd5b9060005260206000209060040201600101819055508260106001880360ff168154811061294157634e487b7160e01b600052603260045260246000fd5b9060005260206000209060040201600201819055508160106001880360ff168154811061297e57634e487b7160e01b600052603260045260246000fd5b906000526020600020906004020160030181905550505050505050565b6060600f80546129aa90614485565b80601f01602080910402602001604051908101604052809291908181526020018280546129d690614485565b8015612a235780601f106129f857610100808354040283529160200191612a23565b820191906000526020600020905b815481529060010190602001808311612a0657829003601f168201915b5050505050905090565b600b546000906001600160a01b0316612a7f5760405162461bcd60e51b81526020600482015260146024820152734143434f554e545f5a45524f5f4144445245535360601b6044820152606401610da1565b50600b546001600160a01b031690565b6000806010805480602002602001604051908101604052809291908181526020016000905b82821015612b965783829060005260206000209060040201604051806080016040529081600082018054612ae790614485565b80601f0160208091040260200160405190810160405280929190818152602001828054612b1390614485565b8015612b605780601f10612b3557610100808354040283529160200191612b60565b820191906000526020600020905b815481529060010190602001808311612b4357829003601f168201915b50505050508152602001600182015481526020016002820154815260200160038201548152505081526020019060010190612ab4565b50505050905060005b81518160ff161015612c5a576000828260ff1681518110612bd057634e487b7160e01b600052603260045260246000fd5b60200260200101516040015190506000838360ff1681518110612c0357634e487b7160e01b600052603260045260246000fd5b60200260200101516060015182612c1a91906143ac565b9050428211158015612c2c5750804211155b15612c4557612c3c8360016143c4565b94505050612c5a565b50508080612c52906144db565b915050612b9f565b5060ff8216612c7b5760405162461bcd60e51b8152600401610da19061428f565b600a5460ff838116911614612c9a57600a805460ff191660ff84161790555b60026001541415612cbd5760405162461bcd60e51b8152600401610da1906142dc565b60026001553360009081526007602052604090205460ff16612cf15760405162461bcd60e51b8152600401610da1906142b5565b6000805b8551811015612d6757612d49868281518110612d2157634e487b7160e01b600052603260045260246000fd5b60200260200101518683815181106119c657634e487b7160e01b600052603260045260246000fd5b612d5390836143ac565b915080612d5f816144c0565b915050612cf5565b5034811115612d885760405162461bcd60e51b8152600401610da190614261565b60005b8551811015612df157612ddf868281518110612db757634e487b7160e01b600052603260045260246000fd5b6020026020010151868381518110611aeb57634e487b7160e01b600052603260045260246000fd5b80612de9816144c0565b915050612d8b565b50506001805550505050565b6000612e088161322f565b600080516020614528833981519152612e208161322f565b60ff848116600081815260026020908152604091829020805460ff19169488169485179055815192835282019290925233917f6082d36730c1beaf3dfd8a9a3ef49801f23ce4f819f33cce97c40b03e446200a9101610f5c565b6000612e858161322f565b600080516020614528833981519152612e9d8161322f565b600080516020614548833981519152612eb58161322f565b8351855114612efb5760405162461bcd60e51b815260206004820152601260248201527111d2519517d25394155517d253959053125160721b6044820152606401610da1565b6001600160a01b03861660009081526007602052604090205460ff16612f585760405162461bcd60e51b815260206004820152601260248201527111d2519517d393d517d4555053125192515160721b6044820152606401610da1565b60005b85518110156126f057612fb087878381518110612f8857634e487b7160e01b600052603260045260246000fd5b6020026020010151878481518110611eaf57634e487b7160e01b600052603260045260246000fd5b80612fba816144c0565b915050612f5b565b6000612fcd8161322f565b600080516020614528833981519152612fe58161322f565b600a805460ff610100808304821615810261ff00199093169290921792839055604080513381529290930416151560208201527fd3ae196360a2f86705798e66702921356ebc675aa4a25983489cc23110e605e9910160405180910390a15050565b606060006130568360026143e9565b6130619060026143ac565b6001600160401b0381111561308657634e487b7160e01b600052604160045260246000fd5b6040519080825280601f01601f1916602001820160405280156130b0576020820181803683370190505b509050600360fc1b816000815181106130d957634e487b7160e01b600052603260045260246000fd5b60200101906001600160f81b031916908160001a905350600f60fb1b8160018151811061311657634e487b7160e01b600052603260045260246000fd5b60200101906001600160f81b031916908160001a905350600061313a8460026143e9565b6131459060016143ac565b90505b60018111156131d9576f181899199a1a9b1b9c1cb0b131b232b360811b85600f166010811061318757634e487b7160e01b600052603260045260246000fd5b1a60f81b8282815181106131ab57634e487b7160e01b600052603260045260246000fd5b60200101906001600160f81b031916908160001a90535060049490941c936131d28161446e565b9050613148565b5083156132285760405162461bcd60e51b815260206004820181905260248201527f537472696e67733a20686578206c656e67746820696e73756666696369656e746044820152606401610da1565b9392505050565b613239813361342e565b50565b6132468282611e29565b610db4576000828152602081815260408083206001600160a01b03851684529091529020805460ff1916600117905561327c3390565b6001600160a01b0316816001600160a01b0316837f2f8788117e7eff1d82e926ec794901d17c78024a50270940304540a733656f0d60405160405180910390a45050565b6132ca8282611e29565b15610db4576000828152602081815260408083206001600160a01b0385168085529252808320805460ff1916905551339285917ff6391f5c32d9c69d2a47ea670b442974b53935d1edc7fd64eb21e047a839171b9190a45050565b60008061333184613356565b905061333d8184613492565b600d546001600160a01b03918216911614949350505050565b6040517f19457468657265756d205369676e6564204d6573736167653a0a3332000000006020820152603c8101829052600090605c01604051602081830303815290604052805190602001209050919050565b6000806133df8585856040516020016133c49392919061414f565b60405160208183030381529060405280519060200120613356565b95945050505050565b600a54610100900460ff1615610db45760405162461bcd60e51b815260206004820152600b60248201526a14d0531157d313d0d2d15160aa1b6044820152606401610da1565b6134388282611e29565b610db457613450816001600160a01b03166014613047565b61345b836020613047565b60405160200161346c9291906141aa565b60408051601f198184030181529082905262461bcd60e51b8252610da19160040161421f565b60008060006134a185856134b6565b915091506134ae81613526565b509392505050565b6000808251604114156134ed5760208301516040840151606085015160001a6134e187828585613727565b9450945050505061351f565b825160401415613517576020830151604084015161350c868383613814565b93509350505061351f565b506000905060025b9250929050565b600081600481111561354857634e487b7160e01b600052602160045260246000fd5b14156135515750565b600181600481111561357357634e487b7160e01b600052602160045260246000fd5b14156135c15760405162461bcd60e51b815260206004820152601860248201527f45434453413a20696e76616c6964207369676e617475726500000000000000006044820152606401610da1565b60028160048111156135e357634e487b7160e01b600052602160045260246000fd5b14156136315760405162461bcd60e51b815260206004820152601f60248201527f45434453413a20696e76616c6964207369676e6174757265206c656e677468006044820152606401610da1565b600381600481111561365357634e487b7160e01b600052602160045260246000fd5b14156136ac5760405162461bcd60e51b815260206004820152602260248201527f45434453413a20696e76616c6964207369676e6174757265202773272076616c604482015261756560f01b6064820152608401610da1565b60048160048111156136ce57634e487b7160e01b600052602160045260246000fd5b14156132395760405162461bcd60e51b815260206004820152602260248201527f45434453413a20696e76616c6964207369676e6174757265202776272076616c604482015261756560f01b6064820152608401610da1565b6000807f7fffffffffffffffffffffffffffffff5d576e7357a4501ddfe92f46681b20a083111561375e575060009050600361380b565b8460ff16601b1415801561377657508460ff16601c14155b15613787575060009050600461380b565b6040805160008082526020820180845289905260ff881692820192909252606081018690526080810185905260019060a0016020604051602081039080840390855afa1580156137db573d6000803e3d6000fd5b5050604051601f1901519150506001600160a01b0381166138045760006001925092505061380b565b9150600090505b94509492505050565b6000806001600160ff1b0383168161383160ff86901c601b6143ac565b905061383f87828885613727565b935093505050935093915050565b82805461385990614485565b90600052602060002090601f01602090048101928261387b57600085556138c1565b82601f1061389457805160ff19168380011785556138c1565b828001600101855582156138c1579182015b828111156138c15782518255916020019190600101906138a6565b506138cd9291506139f6565b5090565b8280546138dd90614485565b90600052602060002090601f0160209004810192826138ff57600085556138c1565b82601f106139185782800160ff198235161785556138c1565b828001600101855582156138c1579182015b828111156138c157823582559160200191906001019061392a565b82805461395190614485565b90600052602060002090601f01602090048101928261397357600085556138c1565b82601f1061398457805485556138c1565b828001600101855582156138c157600052602060002091601f016020900482015b828111156138c15782548255916001019190600101906139a5565b5080546139cc90614485565b6000825580601f106139dc575050565b601f01602090049060005260206000209081019061323991905b5b808211156138cd57600081556001016139f7565b80356001600160a01b0381168114613a2257600080fd5b919050565b600082601f830112613a37578081fd5b81356020613a4c613a4783614389565b614359565b80838252828201915082860187848660051b8901011115613a6b578586fd5b855b85811015613a8957813584529284019290840190600101613a6d565b5090979650505050505050565b600082601f830112613aa6578081fd5b81356020613ab6613a4783614389565b80838252828201915082860187848660051b8901011115613ad5578586fd5b855b85811015613a8957613ae882613b64565b84529284019290840190600101613ad7565b600082601f830112613b0a578081fd5b81356001600160401b03811115613b2357613b23614511565b613b36601f8201601f1916602001614359565b818152846020838601011115613b4a578283fd5b816020850160208301379081016020019190915292915050565b803560ff81168114613a2257600080fd5b600060208284031215613b86578081fd5b61322882613a0b565b60008060408385031215613ba1578081fd5b613baa83613a0b565b9150613bb860208401613a0b565b90509250929050565b600080600060608486031215613bd5578081fd5b613bde84613a0b565b925060208401356001600160401b0380821115613bf9578283fd5b613c0587838801613a96565b93506040860135915080821115613c1a578283fd5b50613c2786828701613a27565b9150509250925092565b60008060408385031215613c43578182fd5b613c4c83613a0b565b9150613bb860208401613b64565b600080600060608486031215613c6e578283fd5b613c7784613a0b565b9250613c8560208501613b64565b9150604084013590509250925092565b60008060208385031215613ca7578182fd5b82356001600160401b0380821115613cbd578384fd5b818501915085601f830112613cd0578384fd5b813581811115613cde578485fd5b8660208260051b8501011115613cf2578485fd5b60209290920196919550909350505050565b600080600060608486031215613d18578081fd5b83356001600160401b0380821115613d2e578283fd5b818601915086601f830112613d41578283fd5b81356020613d51613a4783614389565b8083825282820191508286018b848660051b8901011115613d70578788fd5b8796505b84871015613d9957613d8581613a0b565b835260019690960195918301918301613d74565b5097505087013592505080821115613bf9578283fd5b60008060408385031215613dc1578182fd5b82356001600160401b0380821115613dd7578384fd5b613de386838701613a96565b93506020850135915080821115613df8578283fd5b50613e0585828601613a27565b9150509250929050565b600060208284031215613e20578081fd5b5035919050565b60008060408385031215613e39578182fd5b82359150613bb860208401613a0b565b600080600080600060a08688031215613e60578283fd5b8535945060208601356001600160401b0380821115613e7d578485fd5b613e8989838a01613afa565b95506040880135915080821115613e9e578485fd5b613eaa89838a01613afa565b94506060880135915080821115613ebf578283fd5b613ecb89838a01613a96565b93506080880135915080821115613ee0578283fd5b50613eed88828901613a27565b9150509295509295909350565b600080600080600060a08688031215613f11578283fd5b8535945060208601356001600160401b0380821115613f2e578485fd5b613f3a89838a01613afa565b95506040880135915080821115613f4f578485fd5b50613f5c88828901613afa565b935050613f6b60608701613b64565b949793965091946080013592915050565b600060208284031215613f8d578081fd5b81356001600160e01b031981168114613228578182fd5b60008060208385031215613fb6578182fd5b82356001600160401b0380821115613fcc578384fd5b818501915085601f830112613fdf578384fd5b813581811115613fed578485fd5b866020828501011115613cf2578485fd5b60008060008060808587031215614013578182fd5b84356001600160401b03811115614028578283fd5b61403487828801613afa565b94505061404360208601613b64565b93969395505050506040820135916060013590565b600060208284031215614069578081fd5b61322882613b64565b600080600080600060a08688031215614089578283fd5b61409286613b64565b945060208601356001600160401b038111156140ac578384fd5b6140b888828901613afa565b9450506140c760408701613b64565b94979396509394606081013594506080013592915050565b600080604083850312156140f1578182fd5b6140fa83613b64565b946020939093013593505050565b6000806040838503121561411a578182fd5b613c4c83613b64565b6000815180845261413b816020860160208601614442565b601f01601f19169290920160200192915050565b6bffffffffffffffffffffffff198460601b1681528260148201526000825161417f816034850160208701614442565b91909101603401949350505050565b600082516141a0818460208701614442565b9190910192915050565b7f416363657373436f6e74726f6c3a206163636f756e74200000000000000000008152600083516141e2816017850160208801614442565b7001034b99036b4b9b9b4b733903937b6329607d1b6017918401918201528351614213816028840160208801614442565b01602801949350505050565b6020815260006132286020830184614123565b6080815260006142456080830187614123565b6020830195909552506040810192909252606090910152919050565b602080825260149082015273125394d551919250d251539517d410565351539560621b604082015260600190565b6020808252600c908201526b14d0531157d156141254915160a21b604082015260600190565b6020808252600d908201526c1393d517d45550531251925151609a1b604082015260600190565b6020808252601f908201527f5265656e7472616e637947756172643a207265656e7472616e742063616c6c00604082015260600190565b60208152600082516080602084015261432f60a0840182614123565b90506020840151604084015260408401516060840152606084015160808401528091505092915050565b604051601f8201601f191681016001600160401b038111828210171561438157614381614511565b604052919050565b60006001600160401b038211156143a2576143a2614511565b5060051b60200190565b600082198211156143bf576143bf6144fb565b500190565b600060ff821660ff84168060ff038211156143e1576143e16144fb565b019392505050565b6000816000190483118215151615614403576144036144fb565b500290565b60008282101561441a5761441a6144fb565b500390565b600060ff821660ff841680821015614439576144396144fb565b90039392505050565b60005b8381101561445d578181015183820152602001614445565b83811115611eaf5750506000910152565b60008161447d5761447d6144fb565b506000190190565b600181811c9082168061449957607f821691505b602082108114156144ba57634e487b7160e01b600052602260045260246000fd5b50919050565b60006000198214156144d4576144d46144fb565b5060010190565b600060ff821660ff8114156144f2576144f26144fb565b60010192915050565b634e487b7160e01b600052601160045260246000fd5b634e487b7160e01b600052604160045260246000fdfeb19546dff01e856fb3f010c267a7b1c60363cf8a4664e21cc89c26224620214e9f2df0fed2c77648de5860a4cc508cd0818c85b8b8a1ab4ceeef8d981c8956a6a26469706673582212206a30ed11848018af99ea7190c13d3a19219786dae965510c90350fd6332676e764736f6c63430008040033b19546dff01e856fb3f010c267a7b1c60363cf8a4664e21cc89c26224620214e",
  "linkReferences": {},
  "deployedLinkReferences": {}
}