{
  "_format": "hh-sol-artifact-1",
  "contractName": "LootlotNFT",
  "sourceName": "contracts/tokens/LootlotNFT.sol",
  "abi": [
    {
      "inputs": [
        {
          "internalType": "string",
          "name": "name_",
          "type": "string"
        },
        {
          "internalType": "string",
          "name": "symbol_",
          "type": "string"
        }
      ],
      "stateMutability": "nonpayable",
      "type": "constructor"
    },
    {
      "inputs": [],
      "name": "ApprovalCallerNotOwnerNorApproved",
      "type": "error"
    },
    {
      "inputs": [],
      "name": "ApprovalQueryForNonexistentToken",
      "type": "error"
    },
    {
      "inputs": [],
      "name": "ApprovalToCurrentOwner",
      "type": "error"
    },
    {
      "inputs": [],
      "name": "ApproveToCaller",
      "type": "error"
    },
    {
      "inputs": [],
      "name": "BalanceQueryForZeroAddress",
      "type": "error"
    },
    {
      "inputs": [],
      "name": "LootlotNFT_CurrentLocked",
      "type": "error"
    },
    {
      "inputs": [],
      "name": "MintToZeroAddress",
      "type": "error"
    },
    {
      "inputs": [],
      "name": "MintZeroQuantity",
      "type": "error"
    },
    {
      "inputs": [],
      "name": "OwnerQueryForNonexistentToken",
      "type": "error"
    },
    {
      "inputs": [],
      "name": "TransferCallerNotOwnerNorApproved",
      "type": "error"
    },
    {
      "inputs": [],
      "name": "TransferFromIncorrectOwner",
      "type": "error"
    },
    {
      "inputs": [],
      "name": "TransferToNonERC721ReceiverImplementer",
      "type": "error"
    },
    {
      "inputs": [],
      "name": "TransferToZeroAddress",
      "type": "error"
    },
    {
      "inputs": [],
      "name": "URIQueryForNonexistentToken",
      "type": "error"
    },
    {
      "anonymous": false,
      "inputs": [
        {
          "indexed": true,
          "internalType": "address",
          "name": "owner",
          "type": "address"
        },
        {
          "indexed": true,
          "internalType": "address",
          "name": "approved",
          "type": "address"
        },
        {
          "indexed": true,
          "internalType": "uint256",
          "name": "tokenId",
          "type": "uint256"
        }
      ],
      "name": "Approval",
      "type": "event"
    },
    {
      "anonymous": false,
      "inputs": [
        {
          "indexed": true,
          "internalType": "address",
          "name": "owner",
          "type": "address"
        },
        {
          "indexed": true,
          "internalType": "address",
          "name": "operator",
          "type": "address"
        },
        {
          "indexed": false,
          "internalType": "bool",
          "name": "approved",
          "type": "bool"
        }
      ],
      "name": "ApprovalForAll",
      "type": "event"
    },
    {
      "anonymous": false,
      "inputs": [
        {
          "indexed": true,
          "internalType": "address",
          "name": "operator",
          "type": "address"
        },
        {
          "indexed": false,
          "internalType": "uint256",
          "name": "tokenID",
          "type": "uint256"
        }
      ],
      "name": "Burn",
      "type": "event"
    },
    {
      "anonymous": false,
      "inputs": [
        {
          "indexed": true,
          "internalType": "address",
          "name": "operator",
          "type": "address"
        },
        {
          "indexed": false,
          "internalType": "bool",
          "name": "locked",
          "type": "bool"
        }
      ],
      "name": "Locked",
      "type": "event"
    },
    {
      "anonymous": false,
      "inputs": [
        {
          "indexed": true,
          "internalType": "address",
          "name": "operator",
          "type": "address"
        },
        {
          "indexed": true,
          "internalType": "address",
          "name": "to",
          "type": "address"
        },
        {
          "indexed": false,
          "internalType": "uint256",
          "name": "quantity",
          "type": "uint256"
        }
      ],
      "name": "Mint",
      "type": "event"
    },
    {
      "anonymous": false,
      "inputs": [
        {
          "indexed": true,
          "internalType": "address",
          "name": "operator",
          "type": "address"
        },
        {
          "indexed": false,
          "internalType": "uint256",
          "name": "quantity",
          "type": "uint256"
        }
      ],
      "name": "MintToPool",
      "type": "event"
    },
    {
      "anonymous": false,
      "inputs": [
        {
          "indexed": true,
          "internalType": "address",
          "name": "previousOwner",
          "type": "address"
        },
        {
          "indexed": true,
          "internalType": "address",
          "name": "newOwner",
          "type": "address"
        }
      ],
      "name": "OwnershipTransferred",
      "type": "event"
    },
    {
      "anonymous": false,
      "inputs": [
        {
          "indexed": true,
          "internalType": "address",
          "name": "operator",
          "type": "address"
        },
        {
          "indexed": false,
          "internalType": "address",
          "name": "pool",
          "type": "address"
        }
      ],
      "name": "SetupPool",
      "type": "event"
    },
    {
      "anonymous": false,
      "inputs": [
        {
          "indexed": true,
          "internalType": "address",
          "name": "operator",
          "type": "address"
        },
        {
          "indexed": false,
          "internalType": "bool",
          "name": "allowed",
          "type": "bool"
        }
      ],
      "name": "TradingAllowed",
      "type": "event"
    },
    {
      "anonymous": false,
      "inputs": [
        {
          "indexed": true,
          "internalType": "address",
          "name": "from",
          "type": "address"
        },
        {
          "indexed": true,
          "internalType": "address",
          "name": "to",
          "type": "address"
        },
        {
          "indexed": true,
          "internalType": "uint256",
          "name": "tokenId",
          "type": "uint256"
        }
      ],
      "name": "Transfer",
      "type": "event"
    },
    {
      "anonymous": false,
      "inputs": [
        {
          "indexed": false,
          "internalType": "string",
          "name": "",
          "type": "string"
        }
      ],
      "name": "UpdateMetadataAnimationUrl",
      "type": "event"
    },
    {
      "anonymous": false,
      "inputs": [
        {
          "indexed": false,
          "internalType": "string",
          "name": "",
          "type": "string"
        }
      ],
      "name": "UpdateMetadataExternalUrl",
      "type": "event"
    },
    {
      "anonymous": false,
      "inputs": [
        {
          "indexed": false,
          "internalType": "string",
          "name": "",
          "type": "string"
        }
      ],
      "name": "UpdateMetadataImage",
      "type": "event"
    },
    {
      "inputs": [
        {
          "internalType": "address",
          "name": "to",
          "type": "address"
        },
        {
          "internalType": "uint256",
          "name": "tokenId",
          "type": "uint256"
        }
      ],
      "name": "approve",
      "outputs": [],
      "stateMutability": "nonpayable",
      "type": "function"
    },
    {
      "inputs": [
        {
          "internalType": "address",
          "name": "owner",
          "type": "address"
        }
      ],
      "name": "balanceOf",
      "outputs": [
        {
          "internalType": "uint256",
          "name": "",
          "type": "uint256"
        }
      ],
      "stateMutability": "view",
      "type": "function"
    },
    {
      "inputs": [],
      "name": "baseURI",
      "outputs": [
        {
          "internalType": "string",
          "name": "",
          "type": "string"
        }
      ],
      "stateMutability": "view",
      "type": "function"
    },
    {
      "inputs": [
        {
          "internalType": "uint256",
          "name": "tokenId",
          "type": "uint256"
        }
      ],
      "name": "burn",
      "outputs": [],
      "stateMutability": "nonpayable",
      "type": "function"
    },
    {
      "inputs": [
        {
          "internalType": "uint256",
          "name": "tokenId",
          "type": "uint256"
        }
      ],
      "name": "getApproved",
      "outputs": [
        {
          "internalType": "address",
          "name": "",
          "type": "address"
        }
      ],
      "stateMutability": "view",
      "type": "function"
    },
    {
      "inputs": [
        {
          "internalType": "address",
          "name": "owner",
          "type": "address"
        },
        {
          "internalType": "address",
          "name": "operator",
          "type": "address"
        }
      ],
      "name": "isApprovedForAll",
      "outputs": [
        {
          "internalType": "bool",
          "name": "",
          "type": "bool"
        }
      ],
      "stateMutability": "view",
      "type": "function"
    },
    {
      "inputs": [],
      "name": "lock",
      "outputs": [],
      "stateMutability": "nonpayable",
      "type": "function"
    },
    {
      "inputs": [
        {
          "internalType": "address",
          "name": "to",
          "type": "address"
        },
        {
          "internalType": "uint256",
          "name": "quantity",
          "type": "uint256"
        }
      ],
      "name": "mint",
      "outputs": [],
      "stateMutability": "nonpayable",
      "type": "function"
    },
    {
      "inputs": [],
      "name": "name",
      "outputs": [
        {
          "internalType": "string",
          "name": "",
          "type": "string"
        }
      ],
      "stateMutability": "view",
      "type": "function"
    },
    {
      "inputs": [],
      "name": "owner",
      "outputs": [
        {
          "internalType": "address",
          "name": "",
          "type": "address"
        }
      ],
      "stateMutability": "view",
      "type": "function"
    },
    {
      "inputs": [
        {
          "internalType": "uint256",
          "name": "tokenId",
          "type": "uint256"
        }
      ],
      "name": "ownerOf",
      "outputs": [
        {
          "internalType": "address",
          "name": "",
          "type": "address"
        }
      ],
      "stateMutability": "view",
      "type": "function"
    },
    {
      "inputs": [],
      "name": "renounceOwnership",
      "outputs": [],
      "stateMutability": "nonpayable",
      "type": "function"
    },
    {
      "inputs": [
        {
          "internalType": "address",
          "name": "from",
          "type": "address"
        },
        {
          "internalType": "address",
          "name": "to",
          "type": "address"
        },
        {
          "internalType": "uint256",
          "name": "tokenId",
          "type": "uint256"
        }
      ],
      "name": "safeTransferFrom",
      "outputs": [],
      "stateMutability": "nonpayable",
      "type": "function"
    },
    {
      "inputs": [
        {
          "internalType": "address",
          "name": "from",
          "type": "address"
        },
        {
          "internalType": "address",
          "name": "to",
          "type": "address"
        },
        {
          "internalType": "uint256",
          "name": "tokenId",
          "type": "uint256"
        },
        {
          "internalType": "bytes",
          "name": "_data",
          "type": "bytes"
        }
      ],
      "name": "safeTransferFrom",
      "outputs": [],
      "stateMutability": "nonpayable",
      "type": "function"
    },
    {
      "inputs": [
        {
          "internalType": "address",
          "name": "operator",
          "type": "address"
        },
        {
          "internalType": "bool",
          "name": "approved",
          "type": "bool"
        }
      ],
      "name": "setApprovalForAll",
      "outputs": [],
      "stateMutability": "nonpayable",
      "type": "function"
    },
    {
      "inputs": [
        {
          "internalType": "string",
          "name": "_newBaseURI",
          "type": "string"
        }
      ],
      "name": "setBaseURI",
      "outputs": [],
      "stateMutability": "nonpayable",
      "type": "function"
    },
    {
      "inputs": [
        {
          "internalType": "address",
          "name": "treasury",
          "type": "address"
        }
      ],
      "name": "setTreasury",
      "outputs": [],
      "stateMutability": "nonpayable",
      "type": "function"
    },
    {
      "inputs": [
        {
          "internalType": "bytes4",
          "name": "interfaceId",
          "type": "bytes4"
        }
      ],
      "name": "supportsInterface",
      "outputs": [
        {
          "internalType": "bool",
          "name": "",
          "type": "bool"
        }
      ],
      "stateMutability": "view",
      "type": "function"
    },
    {
      "inputs": [],
      "name": "symbol",
      "outputs": [
        {
          "internalType": "string",
          "name": "",
          "type": "string"
        }
      ],
      "stateMutability": "view",
      "type": "function"
    },
    {
      "inputs": [
        {
          "internalType": "uint256",
          "name": "index",
          "type": "uint256"
        }
      ],
      "name": "tokenByIndex",
      "outputs": [
        {
          "internalType": "uint256",
          "name": "",
          "type": "uint256"
        }
      ],
      "stateMutability": "view",
      "type": "function"
    },
    {
      "inputs": [
        {
          "internalType": "address",
          "name": "owner",
          "type": "address"
        },
        {
          "internalType": "uint256",
          "name": "index",
          "type": "uint256"
        }
      ],
      "name": "tokenOfOwnerByIndex",
      "outputs": [
        {
          "internalType": "uint256",
          "name": "tokenId",
          "type": "uint256"
        }
      ],
      "stateMutability": "view",
      "type": "function"
    },
    {
      "inputs": [
        {
          "internalType": "uint256",
          "name": "tokenId",
          "type": "uint256"
        }
      ],
      "name": "tokenURI",
      "outputs": [
        {
          "internalType": "string",
          "name": "",
          "type": "string"
        }
      ],
      "stateMutability": "view",
      "type": "function"
    },
    {
      "inputs": [],
      "name": "totalSupply",
      "outputs": [
        {
          "internalType": "uint256",
          "name": "",
          "type": "uint256"
        }
      ],
      "stateMutability": "view",
      "type": "function"
    },
    {
      "inputs": [
        {
          "internalType": "address",
          "name": "from",
          "type": "address"
        },
        {
          "internalType": "address",
          "name": "to",
          "type": "address"
        },
        {
          "internalType": "uint256",
          "name": "tokenId",
          "type": "uint256"
        }
      ],
      "name": "transferFrom",
      "outputs": [],
      "stateMutability": "nonpayable",
      "type": "function"
    },
    {
      "inputs": [
        {
          "internalType": "address",
          "name": "newOwner",
          "type": "address"
        }
      ],
      "name": "transferOwnership",
      "outputs": [],
      "stateMutability": "nonpayable",
      "type": "function"
    },
    {
      "inputs": [],
      "name": "unlock",
      "outputs": [],
      "stateMutability": "nonpayable",
      "type": "function"
    }
  ],
  "bytecode": "0x60806040523480156200001157600080fd5b50604051620028d5380380620028d5833981016040819052620000349162000274565b8151829082906200004d9060019060208501906200011b565b508051620000639060029060208401906200011b565b505050620000806200007a620000c560201b60201c565b620000c9565b600a805460ff19166001179055604080516080810190915260578082526200287e60208301398051620000bc916009916020909101906200011b565b5050506200032e565b3390565b600780546001600160a01b038381166001600160a01b0319831681179093556040519116919082907f8be0079c531659141344cd1fd0a4f28419497f9722a3daafe3b4186f6b6457e090600090a35050565b8280546200012990620002db565b90600052602060002090601f0160209004810192826200014d576000855562000198565b82601f106200016857805160ff191683800117855562000198565b8280016001018555821562000198579182015b82811115620001985782518255916020019190600101906200017b565b50620001a6929150620001aa565b5090565b5b80821115620001a65760008155600101620001ab565b600082601f830112620001d2578081fd5b81516001600160401b0380821115620001ef57620001ef62000318565b604051601f8301601f19908116603f011681019082821181831017156200021a576200021a62000318565b8160405283815260209250868385880101111562000236578485fd5b8491505b838210156200025957858201830151818301840152908201906200023a565b838211156200026a57848385830101525b9695505050505050565b6000806040838503121562000287578182fd5b82516001600160401b03808211156200029e578384fd5b620002ac86838701620001c1565b93506020850151915080821115620002c2578283fd5b50620002d185828601620001c1565b9150509250929050565b600181811c90821680620002f057607f821691505b602082108114156200031257634e487b7160e01b600052602260045260246000fd5b50919050565b634e487b7160e01b600052604160045260246000fd5b612540806200033e6000396000f3fe608060405234801561001057600080fd5b506004361061018e5760003560e01c80636c0360eb116100de578063a69df4b511610097578063e985e9c511610071578063e985e9c51461033b578063f0f4426014610377578063f2fde38b1461038a578063f83d08ba1461039d57600080fd5b8063a69df4b51461030d578063b88d4fde14610315578063c87b56dd1461032857600080fd5b80636c0360eb146102be57806370a08231146102c6578063715018a6146102d95780638da5cb5b146102e157806395d89b41146102f2578063a22cb465146102fa57600080fd5b80632f745c591161014b57806342966c681161012557806342966c68146102725780634f6ccce71461028557806355f804b3146102985780636352211e146102ab57600080fd5b80632f745c591461023957806340c10f191461024c57806342842e0e1461025f57600080fd5b806301ffc9a71461019357806306fdde03146101bb578063081812fc146101d0578063095ea7b3146101fb57806318160ddd1461021057806323b872dd14610226575b600080fd5b6101a66101a1366004611ea3565b6103a5565b60405190151581526020015b60405180910390f35b6101c3610412565b6040516101b29190612189565b6101e36101de366004611f21565b6104a4565b6040516001600160a01b0390911681526020016101b2565b61020e610209366004611e7a565b610534565b005b61021861064c565b6040519081526020016101b2565b61020e610234366004611d8c565b610668565b610218610247366004611e7a565b610699565b61020e61025a366004611e7a565b61076e565b61020e61026d366004611d8c565b6107e7565b61020e610280366004611f21565b610802565b610218610293366004611f21565b61086d565b61020e6102a6366004611edb565b610935565b6101e36102b9366004611f21565b610976565b6101c361098a565b6102186102d4366004611d39565b610a18565b61020e610af4565b6007546001600160a01b03166101e3565b6101c3610b2a565b61020e610308366004611e40565b610b39565b61020e610bf7565b61020e610323366004611dc7565b610c2d565b6101c3610336366004611f21565b610c65565b6101a6610349366004611d5a565b6001600160a01b03918216600090815260066020908152604080832093909416825291909152205460ff1690565b61020e610385366004611d39565b610d25565b61020e610398366004611d39565b610dc0565b61020e610e5b565b60006001600160e01b031982166380ac58cd60e01b14806103d657506001600160e01b03198216635b5e139f60e01b145b806103f157506001600160e01b0319821663780e9d6360e01b145b8061040c57506301ffc9a760e01b6001600160e01b03198316145b92915050565b60606001805461042190612308565b80601f016020809104026020016040519081016040528092919081815260200182805461044d90612308565b801561049a5780601f1061046f5761010080835404028352916020019161049a565b820191906000526020600020905b81548152906001019060200180831161047d57829003601f168201915b5050505050905090565b60006104af82610e94565b6105185760405162461bcd60e51b815260206004820152602f60248201527f4552433732315073693a20617070726f76656420717565727920666f72206e6f60448201526e3732bc34b9ba32b73a103a37b5b2b760891b60648201526084015b60405180910390fd5b506000908152600560205260409020546001600160a01b031690565b600061053f82610976565b9050806001600160a01b0316836001600160a01b031614156105af5760405162461bcd60e51b8152602060048201526024808201527f4552433732315073693a20617070726f76616c20746f2063757272656e74206f6044820152633bb732b960e11b606482015260840161050f565b336001600160a01b03821614806105cb57506105cb8133610349565b61063d5760405162461bcd60e51b815260206004820152603b60248201527f4552433732315073693a20617070726f76652063616c6c6572206973206e6f7460448201527f206f776e6572206e6f7220617070726f76656420666f7220616c6c0000000000606482015260840161050f565b6106478383610eca565b505050565b6000610656610f38565b60045461066391906122c5565b905090565b6106723382610f98565b61068e5760405162461bcd60e51b815260040161050f90612226565b610647838383611085565b60008060015b60016004546106ae919061227a565b811015610719576106be81610e94565b80156106e357506106ce81610976565b6001600160a01b0316856001600160a01b0316145b1561070757838214156106f957915061040c9050565b8161070381612343565b9250505b8061071181612343565b91505061069f565b5060405162461bcd60e51b8152602060048201526024808201527f4552433732315073693a206f776e657220696e646578206f7574206f6620626f604482015263756e647360e01b606482015260840161050f565b6007546001600160a01b031633146107985760405162461bcd60e51b815260040161050f906121f1565b6107a2828261128a565b6040518181526001600160a01b0383169033907fab8530f87dc9b59234c4623bf917212bb2536d647574c8e7e5da92c2ede0c9f8906020015b60405180910390a35050565b61064783838360405180602001604052806000815250610c2d565b6007546001600160a01b0316331461082c5760405162461bcd60e51b815260040161050f906121f1565b610835816112a4565b60405181815233907fcc16f5dbb4873280815c1ee09dbd06736cffcc184412cf7a71a0fdb75d397ca59060200160405180910390a250565b600061087761064c565b82106108d35760405162461bcd60e51b815260206004820152602560248201527f4552433732315073693a20676c6f62616c20696e646578206f7574206f6620626044820152646f756e647360d81b606482015260840161050f565b600060015b60016004546108e7919061227a565b81101561092b576108f781610e94565b15610919578382141561090b579392505050565b8161091581612343565b9250505b8061092381612343565b9150506108d8565b5060009392505050565b6007546001600160a01b0316331461095f5760405162461bcd60e51b815260040161050f906121f1565b8051610972906009906020840190611c13565b5050565b60008061098283611306565b509392505050565b6009805461099790612308565b80601f01602080910402602001604051908101604052809291908181526020018280546109c390612308565b8015610a105780601f106109e557610100808354040283529160200191610a10565b820191906000526020600020905b8154815290600101906020018083116109f357829003601f168201915b505050505081565b60006001600160a01b038216610a865760405162461bcd60e51b815260206004820152602d60248201527f4552433732315073693a2062616c616e636520717565727920666f722074686560448201526c207a65726f206164647265737360981b606482015260840161050f565b600060015b6001600454610a9a919061227a565b811015610aed57610aaa81610e94565b15610add57610ab881610976565b6001600160a01b0316846001600160a01b03161415610add57610ada82612343565b91505b610ae681612343565b9050610a8b565b5092915050565b6007546001600160a01b03163314610b1e5760405162461bcd60e51b815260040161050f906121f1565b610b28600061139d565b565b60606002805461042190612308565b6001600160a01b038216331415610b925760405162461bcd60e51b815260206004820152601c60248201527f4552433732315073693a20617070726f766520746f2063616c6c657200000000604482015260640161050f565b3360008181526006602090815260408083206001600160a01b03871680855290835292819020805460ff191686151590811790915590519081529192917f17307eab39ab6107e8899845ad3d59bd9653f200f220920489ca2b5937696c3191016107db565b6007546001600160a01b03163314610c215760405162461bcd60e51b815260040161050f906121f1565b600a805460ff19169055565b610c373383610f98565b610c535760405162461bcd60e51b815260040161050f90612226565b610c5f848484846113ef565b50505050565b6060610c7082610e94565b610c8d57604051630a14c4b560e41b815260040160405180910390fd5b6000610c9883611424565b9050600081610ca5610412565b836009604051602001610cbb9493929190611fff565b60405160208183030381529060405290506000610cf682604051602001610ce29190611f65565b60405160208183030381529060405261153e565b9050600081604051602001610d0b9190611fba565b60408051601f198184030181529190529695505050505050565b6007546001600160a01b03163314610d4f5760405162461bcd60e51b815260040161050f906121f1565b6001600160a01b038116610d985760405162461bcd60e51b815260206004820152601060248201526f496e76616c696420747265617375727960801b604482015260640161050f565b600a80546001600160a01b0390921661010002610100600160a81b0319909216919091179055565b6007546001600160a01b03163314610dea5760405162461bcd60e51b815260040161050f906121f1565b6001600160a01b038116610e4f5760405162461bcd60e51b815260206004820152602660248201527f4f776e61626c653a206e6577206f776e657220697320746865207a65726f206160448201526564647265737360d01b606482015260840161050f565b610e588161139d565b50565b6007546001600160a01b03163314610e855760405162461bcd60e51b815260040161050f906121f1565b600a805460ff19166001179055565b600881811c60009081526020919091526040812054600160ff1b60ff84161c1615610ec157506000919050565b61040c826116b2565b600081815260056020526040902080546001600160a01b0319166001600160a01b0384169081179091558190610eff82610976565b6001600160a01b03167f8c5be1e5ebec7d5bd14f71427d1e84f3dd0314c0f7b2291e5b200ac8c7c3b92560405160405180910390a45050565b6000806008600454901c6001610f4e919061227a565b905060005b81811015610f9357600081815260086020526040902054610f73816116d7565b610f7d908561227a565b9350508080610f8b90612343565b915050610f53565b505090565b6000610fa382610e94565b6110075760405162461bcd60e51b815260206004820152602f60248201527f4552433732315073693a206f70657261746f7220717565727920666f72206e6f60448201526e3732bc34b9ba32b73a103a37b5b2b760891b606482015260840161050f565b600061101283610976565b9050806001600160a01b0316846001600160a01b0316148061104d5750836001600160a01b0316611042846104a4565b6001600160a01b0316145b8061107d57506001600160a01b0380821660009081526006602090815260408083209388168352929052205460ff165b949350505050565b60008061109183611306565b91509150846001600160a01b0316826001600160a01b03161461110b5760405162461bcd60e51b815260206004820152602c60248201527f4552433732315073693a207472616e73666572206f6620746f6b656e2074686160448201526b3a1034b9903737ba1037bbb760a11b606482015260840161050f565b6001600160a01b0384166111715760405162461bcd60e51b815260206004820152602760248201527f4552433732315073693a207472616e7366657220746f20746865207a65726f206044820152666164647265737360c81b606482015260840161050f565b61117e85858560016116f6565b611189600084610eca565b600061119684600161227a565b600881901c600090815260208190526040902054909150600160ff1b60ff83161c161580156111d2575060016004546111cf919061227a565b81105b1561120857600081815260036020526040812080546001600160a01b0319166001600160a01b038916179055611208908261176d565b600084815260036020526040902080546001600160a01b0319166001600160a01b0387161790558184146112415761124160008561176d565b83856001600160a01b0316876001600160a01b03167fddf252ad1be2c89b69c2b068fc378daa952ba7f163c4a11628f55a4df523b3ef60405160405180910390a4505050505050565b610972828260405180602001604052806000815250611799565b60006112af82610976565b90506112bf8160008460016116f6565b6112ca60088361176d565b60405182906000906001600160a01b038416907fddf252ad1be2c89b69c2b068fc378daa952ba7f163c4a11628f55a4df523b3ef908390a45050565b60008061131283610e94565b6113735760405162461bcd60e51b815260206004820152602c60248201527f4552433732315073693a206f776e657220717565727920666f72206e6f6e657860448201526b34b9ba32b73a103a37b5b2b760a11b606482015260840161050f565b61137c836117b4565b6000818152600360205260409020546001600160a01b031694909350915050565b600780546001600160a01b038381166001600160a01b0319831681179093556040519116919082907f8be0079c531659141344cd1fd0a4f28419497f9722a3daafe3b4186f6b6457e090600090a35050565b6113fa848484611085565b6114088484846001856117c0565b610c5f5760405162461bcd60e51b815260040161050f9061219c565b6060816114485750506040805180820190915260018152600360fc1b602082015290565b8160005b8115611472578061145c81612343565b915061146b9050600a83612292565b915061144c565b60008167ffffffffffffffff81111561149b57634e487b7160e01b600052604160045260246000fd5b6040519080825280601f01601f1916602001820160405280156114c5576020820181803683370190505b5090505b841561107d576114da6001836122c5565b91506114e7600a8661235e565b6114f290603061227a565b60f81b81838151811061151557634e487b7160e01b600052603260045260246000fd5b60200101906001600160f81b031916908160001a905350611537600a86612292565b94506114c9565b80516060908061155e575050604080516020810190915260008152919050565b6000600361156d83600261227a565b6115779190612292565b6115829060046122a6565b9050600061159182602061227a565b67ffffffffffffffff8111156115b757634e487b7160e01b600052604160045260246000fd5b6040519080825280601f01601f1916602001820160405280156115e1576020820181803683370190505b50905060006040518060600160405280604081526020016123cb604091399050600181016020830160005b8681101561166d576003818a01810151603f601282901c8116860151600c83901c8216870151600684901c831688015192909316870151600891821b60ff94851601821b92841692909201901b91160160e01b83526004909201910161160c565b5060038606600181146116875760028114611698576116a4565b613d3d60f01b6001198301526116a4565b603d60f81b6000198301525b505050918152949350505050565b60008160011115801561040c575060016004546116cf919061227a565b821092915050565b60005b81156116f1576000198201909116906001016116da565b919050565b6001600160a01b038416158015906117215750600a546001600160a01b038581166101009092041614155b15610c5f57600a5460ff1615610c5f5760405162461bcd60e51b8152602060048201526011602482015270131bdbdd1b1bdd081a5cc81b1bd8dad959607a1b604482015260640161050f565b600881901c600090815260209290925260409091208054600160ff1b60ff9093169290921c9091179055565b6004546117a68484611903565b6114086000858386866117c0565b600061040c8183611a8e565b60006001600160a01b0385163b156118f657506001835b6117e1848661227a565b8110156118f057604051630a85bd0160e11b81526001600160a01b0387169063150b7a029061181a9033908b908690899060040161214c565b602060405180830381600087803b15801561183457600080fd5b505af1925050508015611864575060408051601f3d908101601f1916820190925261186191810190611ebf565b60015b6118be573d808015611892576040519150601f19603f3d011682016040523d82523d6000602084013e611897565b606091505b5080516118b65760405162461bcd60e51b815260040161050f9061219c565b805181602001fd5b8280156118db57506001600160e01b03198116630a85bd0160e11b145b925050806118e881612343565b9150506117d7565b506118fa565b5060015b95945050505050565b6000600454611910600190565b61191a919061227a565b90506000821161197a5760405162461bcd60e51b815260206004820152602560248201527f4552433732315073693a207175616e74697479206d7573742062652067726561604482015264074657220360dc1b606482015260840161050f565b6001600160a01b0383166119dc5760405162461bcd60e51b815260206004820152602360248201527f4552433732315073693a206d696e7420746f20746865207a65726f206164647260448201526265737360e81b606482015260840161050f565b6119e960008483856116f6565b81600460008282546119fb919061227a565b9091555050600081815260036020526040812080546001600160a01b0319166001600160a01b038616179055611a31908261176d565b805b611a3d838361227a565b811015610c5f5760405181906001600160a01b038616906000907fddf252ad1be2c89b69c2b068fc378daa952ba7f163c4a11628f55a4df523b3ef908290a480611a8681612343565b915050611a33565b600881901c60008181526020849052604081205490919060ff808516919082181c8015611ad357611abe81611b83565b60ff168203600884901b17935050505061040c565b60008311611b405760405162461bcd60e51b815260206004820152603460248201527f4269744d6170733a205468652073657420626974206265666f7265207468652060448201527334b73232bc103237b2b9b713ba1032bc34b9ba1760611b606482015260840161050f565b506000199091016000818152602086905260409020549091908015611b7e57611b6881611b83565b60ff0360ff16600884901b17935050505061040c565b611ad3565b6000604051806101200160405280610100815260200161240b610100913960f87e818283848586878898a8b8c8d8e8f929395969799a9b9d9e9faaeb6bedeeff611bcc85611bfb565b02901c81518110611bed57634e487b7160e01b600052603260045260246000fd5b016020015160f81c92915050565b6000808211611c0957600080fd5b5060008190031690565b828054611c1f90612308565b90600052602060002090601f016020900481019282611c415760008555611c87565b82601f10611c5a57805160ff1916838001178555611c87565b82800160010185558215611c87579182015b82811115611c87578251825591602001919060010190611c6c565b50611c93929150611c97565b5090565b5b80821115611c935760008155600101611c98565b600067ffffffffffffffff80841115611cc757611cc761239e565b604051601f8501601f19908116603f01168101908282118183101715611cef57611cef61239e565b81604052809350858152868686011115611d0857600080fd5b858560208301376000602087830101525050509392505050565b80356001600160a01b03811681146116f157600080fd5b600060208284031215611d4a578081fd5b611d5382611d22565b9392505050565b60008060408385031215611d6c578081fd5b611d7583611d22565b9150611d8360208401611d22565b90509250929050565b600080600060608486031215611da0578081fd5b611da984611d22565b9250611db760208501611d22565b9150604084013590509250925092565b60008060008060808587031215611ddc578081fd5b611de585611d22565b9350611df360208601611d22565b925060408501359150606085013567ffffffffffffffff811115611e15578182fd5b8501601f81018713611e25578182fd5b611e3487823560208401611cac565b91505092959194509250565b60008060408385031215611e52578182fd5b611e5b83611d22565b915060208301358015158114611e6f578182fd5b809150509250929050565b60008060408385031215611e8c578182fd5b611e9583611d22565b946020939093013593505050565b600060208284031215611eb4578081fd5b8135611d53816123b4565b600060208284031215611ed0578081fd5b8151611d53816123b4565b600060208284031215611eec578081fd5b813567ffffffffffffffff811115611f02578182fd5b8201601f81018413611f12578182fd5b61107d84823560208401611cac565b600060208284031215611f32578081fd5b5035919050565b60008151808452611f518160208601602086016122dc565b601f01601f19169290920160200192915050565b60008251611f778184602087016122dc565b7f2c20226465736372697074696f6e223a2022506c617945737461746573204c6f9201918252506a6f746c6f74204e4654227d60a81b6020820152602b01919050565b7f646174613a6170706c69636174696f6e2f6a736f6e3b6261736536342c000000815260008251611ff281601d8501602087016122dc565b91909101601d0192915050565b6603d9134b2111d160cd1b8152845160009060206120238260078601838b016122dc565b6a1610113730b6b2911d101160a91b600792850192830152865161204d8160128501848b016122dc565b61202360f01b60129390910192830152855161206f8160148501848a016122dc565b6c1116101134b6b0b3b2911d101160991b6014939091019283015284546021908490600181811c90808316806120a657607f831692505b8683108114156120c457634e487b7160e01b89526022600452602489fd5b8080156120d857600181146120ed5761211d565b60ff198516898801528389018701955061211d565b60008c8152602090208a5b858110156121135781548b82018a01529084019089016120f8565b505086848a010195505b505050505061213e816b3637b7ba3637ba1736b81a1160a11b8152600c0190565b9a9950505050505050505050565b6001600160a01b038581168252841660208201526040810183905260806060820181905260009061217f90830184611f39565b9695505050505050565b602081526000611d536020830184611f39565b60208082526035908201527f4552433732315073693a207472616e7366657220746f206e6f6e20455243373260408201527418a932b1b2b4bb32b91034b6b83632b6b2b73a32b960591b606082015260800190565b6020808252818101527f4f776e61626c653a2063616c6c6572206973206e6f7420746865206f776e6572604082015260600190565b60208082526034908201527f4552433732315073693a207472616e736665722063616c6c6572206973206e6f6040820152731d081bdddb995c881b9bdc88185c1c1c9bdd995960621b606082015260800190565b6000821982111561228d5761228d612372565b500190565b6000826122a1576122a1612388565b500490565b60008160001904831182151516156122c0576122c0612372565b500290565b6000828210156122d7576122d7612372565b500390565b60005b838110156122f75781810151838201526020016122df565b83811115610c5f5750506000910152565b600181811c9082168061231c57607f821691505b6020821081141561233d57634e487b7160e01b600052602260045260246000fd5b50919050565b600060001982141561235757612357612372565b5060010190565b60008261236d5761236d612388565b500690565b634e487b7160e01b600052601160045260246000fd5b634e487b7160e01b600052601260045260246000fd5b634e487b7160e01b600052604160045260246000fd5b6001600160e01b031981168114610e5857600080fdfe4142434445464748494a4b4c4d4e4f505152535455565758595a6162636465666768696a6b6c6d6e6f707172737475767778797a303132333435363738392b2f0001020903110a19042112290b311a3905412245134d2a550c5d32651b6d3a7506264262237d468514804e8d2b95569d0d495ea533a966b11c886eb93bc176c9071727374353637324837e9b47af86c7155181ad4fd18ed32c9096db57d59ee30e2e4a6a5f92a6be3498aae067ddb2eb1d5989b56fd7baf33ca0c2ee77e5caf7ff0810182028303840444c545c646c7425617c847f8c949c48a4a8b087b8c0c816365272829aaec650acd0d28fdad4e22d6991bd97dfdcea58b4d6f29fede4f6fe0f1f2f3f4b5b6b607b8b93a3a7b7bf357199c5abcfd9e168bcdee9b3f1ecf5fd1e3e5a7a8aa2b670c4ced8bbe8f0f4fc3d79a1c3cde7effb78cce6facbf9f8a2646970667358221220152b7c2c2152a43a21cb978f6431c9544345a348170bb7287378c8532b8750d064736f6c6343000804003368747470733a2f2f706c6179657374617465732e6d7970696e6174612e636c6f75642f697066732f516d57613234456f6a6564324d5662654e7552705471514e757a68536133727a764e6a566b5a6e6b7054756241682f",
  "linkReferences": {},
  "deployedLinkReferences": {}
}