{
  "_format": "hh-sol-artifact-1",
  "contractName": "MinionverseNFT",
  "sourceName": "contracts/tokens/MinionverseNFT.sol",
  "abi": [
    {
      "inputs": [
        {
          "internalType": "string",
          "name": "name_",
          "type": "string"
        },
        {
          "internalType": "string",
          "name": "symbol_",
          "type": "string"
        }
      ],
      "stateMutability": "nonpayable",
      "type": "constructor"
    },
    {
      "inputs": [],
      "name": "ApprovalCallerNotOwnerNorApproved",
      "type": "error"
    },
    {
      "inputs": [],
      "name": "ApprovalQueryForNonexistentToken",
      "type": "error"
    },
    {
      "inputs": [],
      "name": "ApprovalToCurrentOwner",
      "type": "error"
    },
    {
      "inputs": [],
      "name": "ApproveToCaller",
      "type": "error"
    },
    {
      "inputs": [],
      "name": "BalanceQueryForZeroAddress",
      "type": "error"
    },
    {
      "inputs": [],
      "name": "MinionverseNFT_CurrentLocked",
      "type": "error"
    },
    {
      "inputs": [],
      "name": "MintToZeroAddress",
      "type": "error"
    },
    {
      "inputs": [],
      "name": "MintZeroQuantity",
      "type": "error"
    },
    {
      "inputs": [],
      "name": "OwnerQueryForNonexistentToken",
      "type": "error"
    },
    {
      "inputs": [],
      "name": "TransferCallerNotOwnerNorApproved",
      "type": "error"
    },
    {
      "inputs": [],
      "name": "TransferFromIncorrectOwner",
      "type": "error"
    },
    {
      "inputs": [],
      "name": "TransferToNonERC721ReceiverImplementer",
      "type": "error"
    },
    {
      "inputs": [],
      "name": "TransferToZeroAddress",
      "type": "error"
    },
    {
      "inputs": [],
      "name": "URIQueryForNonexistentToken",
      "type": "error"
    },
    {
      "anonymous": false,
      "inputs": [
        {
          "indexed": true,
          "internalType": "address",
          "name": "owner",
          "type": "address"
        },
        {
          "indexed": true,
          "internalType": "address",
          "name": "approved",
          "type": "address"
        },
        {
          "indexed": true,
          "internalType": "uint256",
          "name": "tokenId",
          "type": "uint256"
        }
      ],
      "name": "Approval",
      "type": "event"
    },
    {
      "anonymous": false,
      "inputs": [
        {
          "indexed": true,
          "internalType": "address",
          "name": "owner",
          "type": "address"
        },
        {
          "indexed": true,
          "internalType": "address",
          "name": "operator",
          "type": "address"
        },
        {
          "indexed": false,
          "internalType": "bool",
          "name": "approved",
          "type": "bool"
        }
      ],
      "name": "ApprovalForAll",
      "type": "event"
    },
    {
      "anonymous": false,
      "inputs": [
        {
          "indexed": true,
          "internalType": "address",
          "name": "operator",
          "type": "address"
        },
        {
          "indexed": false,
          "internalType": "uint256",
          "name": "tokenID",
          "type": "uint256"
        }
      ],
      "name": "Burn",
      "type": "event"
    },
    {
      "anonymous": false,
      "inputs": [
        {
          "indexed": true,
          "internalType": "address",
          "name": "operator",
          "type": "address"
        },
        {
          "indexed": false,
          "internalType": "bool",
          "name": "locked",
          "type": "bool"
        }
      ],
      "name": "Locked",
      "type": "event"
    },
    {
      "anonymous": false,
      "inputs": [
        {
          "indexed": true,
          "internalType": "address",
          "name": "operator",
          "type": "address"
        },
        {
          "indexed": true,
          "internalType": "address",
          "name": "to",
          "type": "address"
        },
        {
          "indexed": false,
          "internalType": "uint256",
          "name": "quantity",
          "type": "uint256"
        }
      ],
      "name": "Mint",
      "type": "event"
    },
    {
      "anonymous": false,
      "inputs": [
        {
          "indexed": true,
          "internalType": "address",
          "name": "operator",
          "type": "address"
        },
        {
          "indexed": false,
          "internalType": "uint256",
          "name": "quantity",
          "type": "uint256"
        }
      ],
      "name": "MintToPool",
      "type": "event"
    },
    {
      "anonymous": false,
      "inputs": [
        {
          "indexed": true,
          "internalType": "address",
          "name": "previousOwner",
          "type": "address"
        },
        {
          "indexed": true,
          "internalType": "address",
          "name": "newOwner",
          "type": "address"
        }
      ],
      "name": "OwnershipTransferred",
      "type": "event"
    },
    {
      "anonymous": false,
      "inputs": [
        {
          "indexed": true,
          "internalType": "address",
          "name": "operator",
          "type": "address"
        },
        {
          "indexed": false,
          "internalType": "address",
          "name": "pool",
          "type": "address"
        }
      ],
      "name": "SetupPool",
      "type": "event"
    },
    {
      "anonymous": false,
      "inputs": [
        {
          "indexed": true,
          "internalType": "address",
          "name": "operator",
          "type": "address"
        },
        {
          "indexed": false,
          "internalType": "bool",
          "name": "allowed",
          "type": "bool"
        }
      ],
      "name": "TradingAllowed",
      "type": "event"
    },
    {
      "anonymous": false,
      "inputs": [
        {
          "indexed": true,
          "internalType": "address",
          "name": "from",
          "type": "address"
        },
        {
          "indexed": true,
          "internalType": "address",
          "name": "to",
          "type": "address"
        },
        {
          "indexed": true,
          "internalType": "uint256",
          "name": "tokenId",
          "type": "uint256"
        }
      ],
      "name": "Transfer",
      "type": "event"
    },
    {
      "anonymous": false,
      "inputs": [
        {
          "indexed": false,
          "internalType": "string",
          "name": "",
          "type": "string"
        }
      ],
      "name": "UpdateMetadataAnimationUrl",
      "type": "event"
    },
    {
      "anonymous": false,
      "inputs": [
        {
          "indexed": false,
          "internalType": "string",
          "name": "",
          "type": "string"
        }
      ],
      "name": "UpdateMetadataExternalUrl",
      "type": "event"
    },
    {
      "anonymous": false,
      "inputs": [
        {
          "indexed": false,
          "internalType": "string",
          "name": "",
          "type": "string"
        }
      ],
      "name": "UpdateMetadataImage",
      "type": "event"
    },
    {
      "inputs": [],
      "name": "PRICE_PER_TYPE",
      "outputs": [
        {
          "internalType": "uint256",
          "name": "",
          "type": "uint256"
        }
      ],
      "stateMutability": "view",
      "type": "function"
    },
    {
      "inputs": [],
      "name": "SUPPLY_PER_TYPE",
      "outputs": [
        {
          "internalType": "uint256",
          "name": "",
          "type": "uint256"
        }
      ],
      "stateMutability": "view",
      "type": "function"
    },
    {
      "inputs": [
        {
          "internalType": "address",
          "name": "to",
          "type": "address"
        },
        {
          "internalType": "uint256",
          "name": "tokenId",
          "type": "uint256"
        }
      ],
      "name": "approve",
      "outputs": [],
      "stateMutability": "nonpayable",
      "type": "function"
    },
    {
      "inputs": [
        {
          "internalType": "address",
          "name": "owner",
          "type": "address"
        }
      ],
      "name": "balanceOf",
      "outputs": [
        {
          "internalType": "uint256",
          "name": "",
          "type": "uint256"
        }
      ],
      "stateMutability": "view",
      "type": "function"
    },
    {
      "inputs": [],
      "name": "baseURI",
      "outputs": [
        {
          "internalType": "string",
          "name": "",
          "type": "string"
        }
      ],
      "stateMutability": "view",
      "type": "function"
    },
    {
      "inputs": [
        {
          "internalType": "uint256",
          "name": "tokenId",
          "type": "uint256"
        }
      ],
      "name": "burn",
      "outputs": [],
      "stateMutability": "nonpayable",
      "type": "function"
    },
    {
      "inputs": [
        {
          "internalType": "uint256",
          "name": "tokenId",
          "type": "uint256"
        }
      ],
      "name": "getApproved",
      "outputs": [
        {
          "internalType": "address",
          "name": "",
          "type": "address"
        }
      ],
      "stateMutability": "view",
      "type": "function"
    },
    {
      "inputs": [
        {
          "internalType": "enum MinionverseNFT.TokenType",
          "name": "tokenType",
          "type": "uint8"
        }
      ],
      "name": "getMintedPerType",
      "outputs": [
        {
          "internalType": "uint256",
          "name": "",
          "type": "uint256"
        }
      ],
      "stateMutability": "view",
      "type": "function"
    },
    {
      "inputs": [
        {
          "internalType": "int256",
          "name": "_usdPrice",
          "type": "int256"
        }
      ],
      "name": "getPrice",
      "outputs": [
        {
          "internalType": "int256",
          "name": "",
          "type": "int256"
        }
      ],
      "stateMutability": "view",
      "type": "function"
    },
    {
      "inputs": [
        {
          "internalType": "address",
          "name": "owner",
          "type": "address"
        },
        {
          "internalType": "address",
          "name": "operator",
          "type": "address"
        }
      ],
      "name": "isApprovedForAll",
      "outputs": [
        {
          "internalType": "bool",
          "name": "",
          "type": "bool"
        }
      ],
      "stateMutability": "view",
      "type": "function"
    },
    {
      "inputs": [],
      "name": "lock",
      "outputs": [],
      "stateMutability": "nonpayable",
      "type": "function"
    },
    {
      "inputs": [
        {
          "internalType": "address",
          "name": "to",
          "type": "address"
        },
        {
          "internalType": "uint256",
          "name": "quantity",
          "type": "uint256"
        },
        {
          "internalType": "enum MinionverseNFT.TokenType",
          "name": "tokenType",
          "type": "uint8"
        }
      ],
      "name": "mint",
      "outputs": [],
      "stateMutability": "nonpayable",
      "type": "function"
    },
    {
      "inputs": [],
      "name": "name",
      "outputs": [
        {
          "internalType": "string",
          "name": "",
          "type": "string"
        }
      ],
      "stateMutability": "view",
      "type": "function"
    },
    {
      "inputs": [],
      "name": "owner",
      "outputs": [
        {
          "internalType": "address",
          "name": "",
          "type": "address"
        }
      ],
      "stateMutability": "view",
      "type": "function"
    },
    {
      "inputs": [
        {
          "internalType": "uint256",
          "name": "tokenId",
          "type": "uint256"
        }
      ],
      "name": "ownerOf",
      "outputs": [
        {
          "internalType": "address",
          "name": "",
          "type": "address"
        }
      ],
      "stateMutability": "view",
      "type": "function"
    },
    {
      "inputs": [],
      "name": "renounceOwnership",
      "outputs": [],
      "stateMutability": "nonpayable",
      "type": "function"
    },
    {
      "inputs": [
        {
          "internalType": "address",
          "name": "from",
          "type": "address"
        },
        {
          "internalType": "address",
          "name": "to",
          "type": "address"
        },
        {
          "internalType": "uint256",
          "name": "tokenId",
          "type": "uint256"
        }
      ],
      "name": "safeTransferFrom",
      "outputs": [],
      "stateMutability": "nonpayable",
      "type": "function"
    },
    {
      "inputs": [
        {
          "internalType": "address",
          "name": "from",
          "type": "address"
        },
        {
          "internalType": "address",
          "name": "to",
          "type": "address"
        },
        {
          "internalType": "uint256",
          "name": "tokenId",
          "type": "uint256"
        },
        {
          "internalType": "bytes",
          "name": "_data",
          "type": "bytes"
        }
      ],
      "name": "safeTransferFrom",
      "outputs": [],
      "stateMutability": "nonpayable",
      "type": "function"
    },
    {
      "inputs": [
        {
          "internalType": "address",
          "name": "operator",
          "type": "address"
        },
        {
          "internalType": "bool",
          "name": "approved",
          "type": "bool"
        }
      ],
      "name": "setApprovalForAll",
      "outputs": [],
      "stateMutability": "nonpayable",
      "type": "function"
    },
    {
      "inputs": [
        {
          "internalType": "string",
          "name": "_newBaseURI",
          "type": "string"
        }
      ],
      "name": "setBaseURI",
      "outputs": [],
      "stateMutability": "nonpayable",
      "type": "function"
    },
    {
      "inputs": [
        {
          "internalType": "address",
          "name": "treasury",
          "type": "address"
        }
      ],
      "name": "setTreasury",
      "outputs": [],
      "stateMutability": "nonpayable",
      "type": "function"
    },
    {
      "inputs": [
        {
          "internalType": "bytes4",
          "name": "interfaceId",
          "type": "bytes4"
        }
      ],
      "name": "supportsInterface",
      "outputs": [
        {
          "internalType": "bool",
          "name": "",
          "type": "bool"
        }
      ],
      "stateMutability": "view",
      "type": "function"
    },
    {
      "inputs": [],
      "name": "symbol",
      "outputs": [
        {
          "internalType": "string",
          "name": "",
          "type": "string"
        }
      ],
      "stateMutability": "view",
      "type": "function"
    },
    {
      "inputs": [
        {
          "internalType": "uint256",
          "name": "index",
          "type": "uint256"
        }
      ],
      "name": "tokenByIndex",
      "outputs": [
        {
          "internalType": "uint256",
          "name": "",
          "type": "uint256"
        }
      ],
      "stateMutability": "view",
      "type": "function"
    },
    {
      "inputs": [
        {
          "internalType": "address",
          "name": "owner",
          "type": "address"
        },
        {
          "internalType": "uint256",
          "name": "index",
          "type": "uint256"
        }
      ],
      "name": "tokenOfOwnerByIndex",
      "outputs": [
        {
          "internalType": "uint256",
          "name": "tokenId",
          "type": "uint256"
        }
      ],
      "stateMutability": "view",
      "type": "function"
    },
    {
      "inputs": [
        {
          "internalType": "uint256",
          "name": "tokenId",
          "type": "uint256"
        }
      ],
      "name": "tokenURI",
      "outputs": [
        {
          "internalType": "string",
          "name": "",
          "type": "string"
        }
      ],
      "stateMutability": "view",
      "type": "function"
    },
    {
      "inputs": [],
      "name": "totalSupply",
      "outputs": [
        {
          "internalType": "uint256",
          "name": "",
          "type": "uint256"
        }
      ],
      "stateMutability": "view",
      "type": "function"
    },
    {
      "inputs": [
        {
          "internalType": "address",
          "name": "from",
          "type": "address"
        },
        {
          "internalType": "address",
          "name": "to",
          "type": "address"
        },
        {
          "internalType": "uint256",
          "name": "tokenId",
          "type": "uint256"
        }
      ],
      "name": "transferFrom",
      "outputs": [],
      "stateMutability": "nonpayable",
      "type": "function"
    },
    {
      "inputs": [
        {
          "internalType": "address",
          "name": "newOwner",
          "type": "address"
        }
      ],
      "name": "transferOwnership",
      "outputs": [],
      "stateMutability": "nonpayable",
      "type": "function"
    },
    {
      "inputs": [
        {
          "internalType": "uint256",
          "name": "",
          "type": "uint256"
        }
      ],
      "name": "typeNames",
      "outputs": [
        {
          "internalType": "string",
          "name": "",
          "type": "string"
        }
      ],
      "stateMutability": "view",
      "type": "function"
    },
    {
      "inputs": [],
      "name": "unlock",
      "outputs": [],
      "stateMutability": "nonpayable",
      "type": "function"
    }
  ],
  "bytecode": "0x600661010081815265233637bbb2b960d11b6101205260809081526101408281526511d85c99dd5b60d21b6101605260a0526101808281526529b430b6b0b760d11b6101a05260c0526102006040526101c09182526529b834b232b960d11b6101e05260e0919091526200007890600a906004620001b6565b503480156200008657600080fd5b506040516200326238038062003262833981016040819052620000a991620003d2565b815182908290620000c29060019060208501906200021a565b508051620000d89060029060208401906200021a565b505050620000f5620000ef6200016060201b60201c565b62000164565b600d805460ff1916600117905560408051608081019091526051808252620032116020830139805162000131916009916020909101906200021a565b5050600e80546001600160a01b031916738a753747a1fa494ec906ce90e9f37563a8af630e179055506200048c565b3390565b600780546001600160a01b038381166001600160a01b0319831681179093556040519116919082907f8be0079c531659141344cd1fd0a4f28419497f9722a3daafe3b4186f6b6457e090600090a35050565b82805482825590600052602060002090810192821562000208579160200282015b82811115620002085782518051620001f79184916020909101906200021a565b5091602001919060010190620001d7565b5062000216929150620002a5565b5090565b828054620002289062000439565b90600052602060002090601f0160209004810192826200024c576000855562000297565b82601f106200026757805160ff191683800117855562000297565b8280016001018555821562000297579182015b82811115620002975782518255916020019190600101906200027a565b5062000216929150620002c6565b8082111562000216576000620002bc8282620002dd565b50600101620002a5565b5b80821115620002165760008155600101620002c7565b508054620002eb9062000439565b6000825580601f10620002fc575050565b601f0160209004906000526020600020908101906200031c9190620002c6565b50565b600082601f83011262000330578081fd5b81516001600160401b03808211156200034d576200034d62000476565b604051601f8301601f19908116603f0116810190828211818310171562000378576200037862000476565b8160405283815260209250868385880101111562000394578485fd5b8491505b83821015620003b7578582018301518183018401529082019062000398565b83821115620003c857848385830101525b9695505050505050565b60008060408385031215620003e5578182fd5b82516001600160401b0380821115620003fc578384fd5b6200040a868387016200031f565b9350602085015191508082111562000420578283fd5b506200042f858286016200031f565b9150509250929050565b600181811c908216806200044e57607f821691505b602082108114156200047057634e487b7160e01b600052602260045260246000fd5b50919050565b634e487b7160e01b600052604160045260246000fd5b612d75806200049c6000396000f3fe608060405234801561001057600080fd5b50600436106101e55760003560e01c8063715018a61161010f578063c0a15ec4116100a2578063f0f4426011610071578063f0f4426014610407578063f2fde38b1461041a578063f83d08ba1461042d578063fde800c71461043557600080fd5b8063c0a15ec41461039d578063c87b56dd146103a5578063d9111738146103b8578063e985e9c5146103cb57600080fd5b80639732f1d5116100de5780639732f1d51461035c578063a22cb4651461036f578063a69df4b514610382578063b88d4fde1461038a57600080fd5b8063715018a614610330578063845bcabd146103385780638da5cb5b1461034357806395d89b411461035457600080fd5b806342842e0e116101875780636112e8ac116101565780636112e8ac146102ef5780636352211e146103025780636c0360eb1461031557806370a082311461031d57600080fd5b806342842e0e146102a357806342966c68146102b65780634f6ccce7146102c957806355f804b3146102dc57600080fd5b8063095ea7b3116101c3578063095ea7b31461025257806318160ddd1461026757806323b872dd1461027d5780632f745c591461029057600080fd5b806301ffc9a7146101ea57806306fdde0314610212578063081812fc14610227575b600080fd5b6101fd6101f83660046124da565b610448565b60405190151581526020015b60405180910390f35b61021a6104b5565b60405161020991906128f6565b61023a61023536600461252c565b610547565b6040516001600160a01b039091168152602001610209565b610265610260366004612476565b6105d7565b005b61026f6106ef565b604051908152602001610209565b61026561028b366004612388565b61070b565b61026f61029e366004612476565b61073c565b6102656102b1366004612388565b610811565b6102656102c436600461252c565b61082c565b61026f6102d736600461252c565b61092e565b6102656102ea366004612544565b6109f6565b6102656102fd36600461249f565b610a37565b61023a61031036600461252c565b610cd8565b61021a610cec565b61026f61032b366004612335565b610d7a565b610265610e56565b61026f631dcd650081565b6007546001600160a01b031661023a565b61021a610e8c565b61021a61036a36600461252c565b610e9b565b61026561037d36600461243c565b610ec6565b610265610f8b565b6102656103983660046123c3565b610fc1565b61026f603281565b61021a6103b336600461252c565b610ff9565b61026f6103c636600461252c565b6111ac565b6101fd6103d9366004612356565b6001600160a01b03918216600090815260066020908152604080832093909416825291909152205460ff1690565b610265610415366004612335565b611272565b610265610428366004612335565b61130d565b6102656113a8565b61026f610443366004612512565b6113e1565b60006001600160e01b031982166380ac58cd60e01b148061047957506001600160e01b03198216635b5e139f60e01b145b8061049457506001600160e01b0319821663780e9d6360e01b145b806104af57506301ffc9a760e01b6001600160e01b03198316145b92915050565b6060600180546104c490612b3d565b80601f01602080910402602001604051908101604052809291908181526020018280546104f090612b3d565b801561053d5780601f106105125761010080835404028352916020019161053d565b820191906000526020600020905b81548152906001019060200180831161052057829003601f168201915b5050505050905090565b600061055282611468565b6105bb5760405162461bcd60e51b815260206004820152602f60248201527f4552433732315073693a20617070726f76656420717565727920666f72206e6f60448201526e3732bc34b9ba32b73a103a37b5b2b760891b60648201526084015b60405180910390fd5b506000908152600560205260409020546001600160a01b031690565b60006105e282610cd8565b9050806001600160a01b0316836001600160a01b031614156106525760405162461bcd60e51b8152602060048201526024808201527f4552433732315073693a20617070726f76616c20746f2063757272656e74206f6044820152633bb732b960e11b60648201526084016105b2565b336001600160a01b038216148061066e575061066e81336103d9565b6106e05760405162461bcd60e51b815260206004820152603b60248201527f4552433732315073693a20617070726f76652063616c6c6572206973206e6f7460448201527f206f776e6572206e6f7220617070726f76656420666f7220616c6c000000000060648201526084016105b2565b6106ea838361149e565b505050565b60006106f961150c565b6004546107069190612ae3565b905090565b610715338261156c565b6107315760405162461bcd60e51b81526004016105b290612993565b6106ea838383611659565b60008060015b600160045461075191906129e7565b8110156107bc5761076181611468565b8015610786575061077181610cd8565b6001600160a01b0316856001600160a01b0316145b156107aa578382141561079c5791506104af9050565b816107a681612b78565b9250505b806107b481612b78565b915050610742565b5060405162461bcd60e51b8152602060048201526024808201527f4552433732315073693a206f776e657220696e646578206f7574206f6620626f604482015263756e647360e01b60648201526084016105b2565b6106ea83838360405180602001604052806000815250610fc1565b6007546001600160a01b031633146108565760405162461bcd60e51b81526004016105b29061295e565b6000818152600b6020526040812060010154600c919060ff16600381111561088e57634e487b7160e01b600052602160045260246000fd5b60038111156108ad57634e487b7160e01b600052602160045260246000fd5b815260200190815260200160002060008154809291906108cc90612b26565b90915550506000818152600b60205260408120908155600101805460ff191690556108f68161185e565b60405181815233907fcc16f5dbb4873280815c1ee09dbd06736cffcc184412cf7a71a0fdb75d397ca59060200160405180910390a250565b60006109386106ef565b82106109945760405162461bcd60e51b815260206004820152602560248201527f4552433732315073693a20676c6f62616c20696e646578206f7574206f6620626044820152646f756e647360d81b60648201526084016105b2565b600060015b60016004546109a891906129e7565b8110156109ec576109b881611468565b156109da57838214156109cc579392505050565b816109d681612b78565b9250505b806109e481612b78565b915050610999565b5060009392505050565b6007546001600160a01b03163314610a205760405162461bcd60e51b81526004016105b29061295e565b8051610a339060099060208401906121e6565b5050565b6007546001600160a01b03163314610a615760405162461bcd60e51b81526004016105b29061295e565b806000816003811115610a8457634e487b7160e01b600052602160045260246000fd5b10158015610ab257506003816003811115610aaf57634e487b7160e01b600052602160045260246000fd5b11155b610af35760405162461bcd60e51b8152602060048201526012602482015271496e76616c696420746f6b656e207479706560701b60448201526064016105b2565b603283600c6000856003811115610b1a57634e487b7160e01b600052602160045260246000fd5b6003811115610b3957634e487b7160e01b600052602160045260246000fd5b815260200190815260200160002054610b5291906129e7565b1115610bae5760405162461bcd60e51b815260206004820152602560248201527f4f766572666c6f772074686520746f74616c737570706c7920666f7220746865604482015264207479706560d81b60648201526084016105b2565b610bb884846118c0565b6004545b83600454610bca9190612ae3565b811115610c2b576000818152600b6020526040902081815560018082018054869260ff1990911690836003811115610c1257634e487b7160e01b600052602160045260246000fd5b0217905550508080610c2390612b26565b915050610bbc565b5082600c6000846003811115610c5157634e487b7160e01b600052602160045260246000fd5b6003811115610c7057634e487b7160e01b600052602160045260246000fd5b81526020019081526020016000206000828254610c8d91906129e7565b90915550506040518381526001600160a01b0385169033907fab8530f87dc9b59234c4623bf917212bb2536d647574c8e7e5da92c2ede0c9f89060200160405180910390a350505050565b600080610ce4836118da565b509392505050565b60098054610cf990612b3d565b80601f0160208091040260200160405190810160405280929190818152602001828054610d2590612b3d565b8015610d725780601f10610d4757610100808354040283529160200191610d72565b820191906000526020600020905b815481529060010190602001808311610d5557829003601f168201915b505050505081565b60006001600160a01b038216610de85760405162461bcd60e51b815260206004820152602d60248201527f4552433732315073693a2062616c616e636520717565727920666f722074686560448201526c207a65726f206164647265737360981b60648201526084016105b2565b600060015b6001600454610dfc91906129e7565b811015610e4f57610e0c81611468565b15610e3f57610e1a81610cd8565b6001600160a01b0316846001600160a01b03161415610e3f57610e3c82612b78565b91505b610e4881612b78565b9050610ded565b5092915050565b6007546001600160a01b03163314610e805760405162461bcd60e51b81526004016105b29061295e565b610e8a6000611971565b565b6060600280546104c490612b3d565b600a8181548110610eab57600080fd5b906000526020600020016000915090508054610cf990612b3d565b6001600160a01b038216331415610f1f5760405162461bcd60e51b815260206004820152601c60248201527f4552433732315073693a20617070726f766520746f2063616c6c65720000000060448201526064016105b2565b3360008181526006602090815260408083206001600160a01b03871680855290835292819020805460ff191686151590811790915590519081529192917f17307eab39ab6107e8899845ad3d59bd9653f200f220920489ca2b5937696c31910160405180910390a35050565b6007546001600160a01b03163314610fb55760405162461bcd60e51b81526004016105b29061295e565b600d805460ff19169055565b610fcb338361156c565b610fe75760405162461bcd60e51b81526004016105b290612993565b610ff3848484846119c3565b50505050565b606061100482611468565b61102157604051630a14c4b560e41b815260040160405180910390fd5b6000828152600b602090815260408083208151808301909252805482526001810154919290919083019060ff16600381111561106d57634e487b7160e01b600052602160045260246000fd5b600381111561108c57634e487b7160e01b600052602160045260246000fd5b9052509050600061109c846119f8565b905060006110cc836020015160038111156110c757634e487b7160e01b600052602160045260246000fd5b6119f8565b90506000826110d96104b5565b846009856040516020016110f19594939291906127f2565b6040516020818303038152906040529050600061117b82600a8760200151600381111561112e57634e487b7160e01b600052602160045260246000fd5b8154811061114c57634e487b7160e01b600052603260045260246000fd5b9060005260206000200160405160200161116792919061269d565b604051602081830303815290604052611b12565b905060008160405160200161119091906127ad565b60408051601f1981840301815291905298975050505050505050565b600080600080600080600e60009054906101000a90046001600160a01b03166001600160a01b031663feaf968c6040518163ffffffff1660e01b815260040160a06040518083038186803b15801561120357600080fd5b505afa158015611217573d6000803e3d6000fd5b505050506040513d601f19601f8201168201806040525081019061123b919061258a565b9450945094509450945083876a52b7d2dcc80cd2e400000061125d9190612a41565b61126791906129ff565b979650505050505050565b6007546001600160a01b0316331461129c5760405162461bcd60e51b81526004016105b29061295e565b6001600160a01b0381166112e55760405162461bcd60e51b815260206004820152601060248201526f496e76616c696420747265617375727960801b60448201526064016105b2565b600d80546001600160a01b0390921661010002610100600160a81b0319909216919091179055565b6007546001600160a01b031633146113375760405162461bcd60e51b81526004016105b29061295e565b6001600160a01b03811661139c5760405162461bcd60e51b815260206004820152602660248201527f4f776e61626c653a206e6577206f776e657220697320746865207a65726f206160448201526564647265737360d01b60648201526084016105b2565b6113a581611971565b50565b6007546001600160a01b031633146113d25760405162461bcd60e51b81526004016105b29061295e565b600d805460ff19166001179055565b6007546000906001600160a01b0316331461140e5760405162461bcd60e51b81526004016105b29061295e565b600c600083600381111561143257634e487b7160e01b600052602160045260246000fd5b600381111561145157634e487b7160e01b600052602160045260246000fd5b81526020019081526020016000205490505b919050565b600881811c60009081526020919091526040812054600160ff1b60ff84161c161561149557506000919050565b6104af82611c86565b600081815260056020526040902080546001600160a01b0319166001600160a01b03841690811790915581906114d382610cd8565b6001600160a01b03167f8c5be1e5ebec7d5bd14f71427d1e84f3dd0314c0f7b2291e5b200ac8c7c3b92560405160405180910390a45050565b6000806008600454901c600161152291906129e7565b905060005b818110156115675760008181526008602052604090205461154781611cab565b61155190856129e7565b935050808061155f90612b78565b915050611527565b505090565b600061157782611468565b6115db5760405162461bcd60e51b815260206004820152602f60248201527f4552433732315073693a206f70657261746f7220717565727920666f72206e6f60448201526e3732bc34b9ba32b73a103a37b5b2b760891b60648201526084016105b2565b60006115e683610cd8565b9050806001600160a01b0316846001600160a01b031614806116215750836001600160a01b031661161684610547565b6001600160a01b0316145b8061165157506001600160a01b0380821660009081526006602090815260408083209388168352929052205460ff165b949350505050565b600080611665836118da565b91509150846001600160a01b0316826001600160a01b0316146116df5760405162461bcd60e51b815260206004820152602c60248201527f4552433732315073693a207472616e73666572206f6620746f6b656e2074686160448201526b3a1034b9903737ba1037bbb760a11b60648201526084016105b2565b6001600160a01b0384166117455760405162461bcd60e51b815260206004820152602760248201527f4552433732315073693a207472616e7366657220746f20746865207a65726f206044820152666164647265737360c81b60648201526084016105b2565b6117528585856001611cc5565b61175d60008461149e565b600061176a8460016129e7565b600881901c600090815260208190526040902054909150600160ff1b60ff83161c161580156117a6575060016004546117a391906129e7565b81105b156117dc57600081815260036020526040812080546001600160a01b0319166001600160a01b0389161790556117dc9082611d40565b600084815260036020526040902080546001600160a01b0319166001600160a01b03871617905581841461181557611815600085611d40565b83856001600160a01b0316876001600160a01b03167fddf252ad1be2c89b69c2b068fc378daa952ba7f163c4a11628f55a4df523b3ef60405160405180910390a4505050505050565b600061186982610cd8565b9050611879816000846001611cc5565b611884600883611d40565b60405182906000906001600160a01b038416907fddf252ad1be2c89b69c2b068fc378daa952ba7f163c4a11628f55a4df523b3ef908390a45050565b610a33828260405180602001604052806000815250611d6c565b6000806118e683611468565b6119475760405162461bcd60e51b815260206004820152602c60248201527f4552433732315073693a206f776e657220717565727920666f72206e6f6e657860448201526b34b9ba32b73a103a37b5b2b760a11b60648201526084016105b2565b61195083611d87565b6000818152600360205260409020546001600160a01b031694909350915050565b600780546001600160a01b038381166001600160a01b0319831681179093556040519116919082907f8be0079c531659141344cd1fd0a4f28419497f9722a3daafe3b4186f6b6457e090600090a35050565b6119ce848484611659565b6119dc848484600185611d93565b610ff35760405162461bcd60e51b81526004016105b290612909565b606081611a1c5750506040805180820190915260018152600360fc1b602082015290565b8160005b8115611a465780611a3081612b78565b9150611a3f9050600a83612a2d565b9150611a20565b60008167ffffffffffffffff811115611a6f57634e487b7160e01b600052604160045260246000fd5b6040519080825280601f01601f191660200182016040528015611a99576020820181803683370190505b5090505b841561165157611aae600183612ae3565b9150611abb600a86612b93565b611ac69060306129e7565b60f81b818381518110611ae957634e487b7160e01b600052603260045260246000fd5b60200101906001600160f81b031916908160001a905350611b0b600a86612a2d565b9450611a9d565b805160609080611b32575050604080516020810190915260008152919050565b60006003611b418360026129e7565b611b4b9190612a2d565b611b56906004612ac4565b90506000611b658260206129e7565b67ffffffffffffffff811115611b8b57634e487b7160e01b600052604160045260246000fd5b6040519080825280601f01601f191660200182016040528015611bb5576020820181803683370190505b5090506000604051806060016040528060408152602001612c00604091399050600181016020830160005b86811015611c41576003818a01810151603f601282901c8116860151600c83901c8216870151600684901c831688015192909316870151600891821b60ff94851601821b92841692909201901b91160160e01b835260049092019101611be0565b506003860660018114611c5b5760028114611c6c57611c78565b613d3d60f01b600119830152611c78565b603d60f81b6000198301525b505050918152949350505050565b6000816001111580156104af57506001600454611ca391906129e7565b821092915050565b60005b811561146357600019820190911690600101611cae565b6001600160a01b03841615801590611cf05750600d546001600160a01b038581166101009092041614155b15610ff357600d5460ff1615610ff35760405162461bcd60e51b8152602060048201526015602482015274135a5b9a5bdb9d995c9cd9481a5cc81b1bd8dad959605a1b60448201526064016105b2565b600881901c600090815260209290925260409091208054600160ff1b60ff9093169290921c9091179055565b600454611d798484611ed6565b6119dc600085838686611d93565b60006104af8183612061565b60006001600160a01b0385163b15611ec957506001835b611db484866129e7565b811015611ec357604051630a85bd0160e11b81526001600160a01b0387169063150b7a0290611ded9033908b90869089906004016128b9565b602060405180830381600087803b158015611e0757600080fd5b505af1925050508015611e37575060408051601f3d908101601f19168201909252611e34918101906124f6565b60015b611e91573d808015611e65576040519150601f19603f3d011682016040523d82523d6000602084013e611e6a565b606091505b508051611e895760405162461bcd60e51b81526004016105b290612909565b805181602001fd5b828015611eae57506001600160e01b03198116630a85bd0160e11b145b92505080611ebb81612b78565b915050611daa565b50611ecd565b5060015b95945050505050565b6000600454611ee3600190565b611eed91906129e7565b905060008211611f4d5760405162461bcd60e51b815260206004820152602560248201527f4552433732315073693a207175616e74697479206d7573742062652067726561604482015264074657220360dc1b60648201526084016105b2565b6001600160a01b038316611faf5760405162461bcd60e51b815260206004820152602360248201527f4552433732315073693a206d696e7420746f20746865207a65726f206164647260448201526265737360e81b60648201526084016105b2565b611fbc6000848385611cc5565b8160046000828254611fce91906129e7565b9091555050600081815260036020526040812080546001600160a01b0319166001600160a01b0386161790556120049082611d40565b805b61201083836129e7565b811015610ff35760405181906001600160a01b038616906000907fddf252ad1be2c89b69c2b068fc378daa952ba7f163c4a11628f55a4df523b3ef908290a48061205981612b78565b915050612006565b600881901c60008181526020849052604081205490919060ff808516919082181c80156120a65761209181612156565b60ff168203600884901b1793505050506104af565b600083116121135760405162461bcd60e51b815260206004820152603460248201527f4269744d6170733a205468652073657420626974206265666f7265207468652060448201527334b73232bc103237b2b9b713ba1032bc34b9ba1760611b60648201526084016105b2565b5060001990910160008181526020869052604090205490919080156121515761213b81612156565b60ff0360ff16600884901b1793505050506104af565b6120a6565b60006040518061012001604052806101008152602001612c40610100913960f87e818283848586878898a8b8c8d8e8f929395969799a9b9d9e9faaeb6bedeeff61219f856121ce565b02901c815181106121c057634e487b7160e01b600052603260045260246000fd5b016020015160f81c92915050565b60008082116121dc57600080fd5b5060008190031690565b8280546121f290612b3d565b90600052602060002090601f016020900481019282612214576000855561225a565b82601f1061222d57805160ff191683800117855561225a565b8280016001018555821561225a579182015b8281111561225a57825182559160200191906001019061223f565b5061226692915061226a565b5090565b5b80821115612266576000815560010161226b565b600067ffffffffffffffff8084111561229a5761229a612bd3565b604051601f8501601f19908116603f011681019082821181831017156122c2576122c2612bd3565b816040528093508581528686860111156122db57600080fd5b858560208301376000602087830101525050509392505050565b80356001600160a01b038116811461146357600080fd5b80356004811061146357600080fd5b805169ffffffffffffffffffff8116811461146357600080fd5b600060208284031215612346578081fd5b61234f826122f5565b9392505050565b60008060408385031215612368578081fd5b612371836122f5565b915061237f602084016122f5565b90509250929050565b60008060006060848603121561239c578081fd5b6123a5846122f5565b92506123b3602085016122f5565b9150604084013590509250925092565b600080600080608085870312156123d8578081fd5b6123e1856122f5565b93506123ef602086016122f5565b925060408501359150606085013567ffffffffffffffff811115612411578182fd5b8501601f81018713612421578182fd5b6124308782356020840161227f565b91505092959194509250565b6000806040838503121561244e578182fd5b612457836122f5565b91506020830135801515811461246b578182fd5b809150509250929050565b60008060408385031215612488578182fd5b612491836122f5565b946020939093013593505050565b6000806000606084860312156124b3578283fd5b6124bc846122f5565b9250602084013591506124d16040850161230c565b90509250925092565b6000602082840312156124eb578081fd5b813561234f81612be9565b600060208284031215612507578081fd5b815161234f81612be9565b600060208284031215612523578081fd5b61234f8261230c565b60006020828403121561253d578081fd5b5035919050565b600060208284031215612555578081fd5b813567ffffffffffffffff81111561256b578182fd5b8201601f8101841361257b578182fd5b6116518482356020840161227f565b600080600080600060a086880312156125a1578283fd5b6125aa8661231b565b94506020860151935060408601519250606086015191506125cd6080870161231b565b90509295509295909350565b600081518084526125f1816020860160208601612afa565b601f01601f19169290920160200192915050565b8054600090600181811c908083168061261f57607f831692505b602080841082141561263f57634e487b7160e01b86526022600452602486fd5b818015612653576001811461266457612691565b60ff19861689528489019650612691565b60008881526020902060005b868110156126895781548b820152908501908301612670565b505084890196505b50505050505092915050565b600083516126af818460208801612afa565b7f2c20226465736372697074696f6e223a2022506c617945737461746573204d699083019081526d3734b7b73b32b939b29027232a1160911b6020820152702c202261747472696275746573223a205b60781b602e8201527f7b202274726169745f74797065223a20225072696365222c202276616c756522603f8201526d01d10111a902aa9a22191103e96160951b605f8201527f7b202274726169745f74797065223a20224d696e696f6e766572736520547970606d8201526d32911610113b30b63ab2911d101160911b608d82015261278e609b820185612605565b61227d60f01b8152615d7d60f01b600282015260040195945050505050565b7f646174613a6170706c69636174696f6e2f6a736f6e3b6261736536342c0000008152600082516127e581601d850160208701612afa565b91909101601d0192915050565b6603d9134b2111d160cd1b81528551600090612815816007850160208b01612afa565b6a1610113730b6b2911d101160a91b6007918401918201528651612840816012840160208b01612afa565b61202360f01b601292909101918201528551612863816014840160208a01612afa565b6c1116101134b6b0b3b2911d101160991b6014929091019182015261288b6021820186612605565b9050835161289d818360208801612afa565b641736b81a1160d91b9101908152600501979650505050505050565b6001600160a01b03858116825284166020820152604081018390526080606082018190526000906128ec908301846125d9565b9695505050505050565b60208152600061234f60208301846125d9565b60208082526035908201527f4552433732315073693a207472616e7366657220746f206e6f6e20455243373260408201527418a932b1b2b4bb32b91034b6b83632b6b2b73a32b960591b606082015260800190565b6020808252818101527f4f776e61626c653a2063616c6c6572206973206e6f7420746865206f776e6572604082015260600190565b60208082526034908201527f4552433732315073693a207472616e736665722063616c6c6572206973206e6f6040820152731d081bdddb995c881b9bdc88185c1c1c9bdd995960621b606082015260800190565b600082198211156129fa576129fa612ba7565b500190565b600082612a0e57612a0e612bbd565b600160ff1b821460001984141615612a2857612a28612ba7565b500590565b600082612a3c57612a3c612bbd565b500490565b60006001600160ff1b0381841382841380821686840486111615612a6757612a67612ba7565b600160ff1b84871282811687830589121615612a8557612a85612ba7565b858712925087820587128484161615612aa057612aa0612ba7565b87850587128184161615612ab657612ab6612ba7565b505050929093029392505050565b6000816000190483118215151615612ade57612ade612ba7565b500290565b600082821015612af557612af5612ba7565b500390565b60005b83811015612b15578181015183820152602001612afd565b83811115610ff35750506000910152565b600081612b3557612b35612ba7565b506000190190565b600181811c90821680612b5157607f821691505b60208210811415612b7257634e487b7160e01b600052602260045260246000fd5b50919050565b6000600019821415612b8c57612b8c612ba7565b5060010190565b600082612ba257612ba2612bbd565b500690565b634e487b7160e01b600052601160045260246000fd5b634e487b7160e01b600052601260045260246000fd5b634e487b7160e01b600052604160045260246000fd5b6001600160e01b0319811681146113a557600080fdfe4142434445464748494a4b4c4d4e4f505152535455565758595a6162636465666768696a6b6c6d6e6f707172737475767778797a303132333435363738392b2f0001020903110a19042112290b311a3905412245134d2a550c5d32651b6d3a7506264262237d468514804e8d2b95569d0d495ea533a966b11c886eb93bc176c9071727374353637324837e9b47af86c7155181ad4fd18ed32c9096db57d59ee30e2e4a6a5f92a6be3498aae067ddb2eb1d5989b56fd7baf33ca0c2ee77e5caf7ff0810182028303840444c545c646c7425617c847f8c949c48a4a8b087b8c0c816365272829aaec650acd0d28fdad4e22d6991bd97dfdcea58b4d6f29fede4f6fe0f1f2f3f4b5b6b607b8b93a3a7b7bf357199c5abcfd9e168bcdee9b3f1ecf5fd1e3e5a7a8aa2b670c4ced8bbe8f0f4fc3d79a1c3cde7effb78cce6facbf9f8a2646970667358221220507ebd6b3b0f9da9345372ed22afc7f61fefb7374f13021cc6fd1a7e93b3469d64736f6c6343000804003368747470733a2f2f676174657761792e70696e6174612e636c6f75642f697066732f516d6352454e64563561466a6d6d55684c516b5a34516d6f387539724d665744386578793875614632726e3531772f",
  "linkReferences": {},
  "deployedLinkReferences": {}
}